:020000040800F2
:1000000000000120C5020008CB020008CF02000852
:1000100041030008450300088D03000800000000AC
:10002000000000000000000000000000D5030008F0
:10003000D903000800000000DD030008F50A0008ED
:10004000F1030008F1030008F1030008F1030008C0
:10005000F1030008F1030008F1030008F1030008B0
:10006000F1030008F1030008F1030008F1030008A0
:10007000F1030008F1030008F1030008F103000890
:10008000F1030008F1030008F1030008000000007C
:10009000000000000000000000000000F103000864
:1000A000F1030008F1030008F1030008F103000860
:1000B000F1030008F1030008F1030008F103000850
:1000C000F1030008F1030008F1030008F103000840
:1000D000F1030008F1030008F1030008000000002C
:1000E000F1030008F1030008F1030008000000001C
:1000F000000000000000000000000000F103000804
:1001000000000000F1030008F1030008F1030008FB
:1001100000000000000000000000000000000000DF
:10012000F1030008F1030008F1030008F1030008DF
:10013000F1030008000000000000000000000000C3
:10014000000000000000000000000000F1030008B3
:10015000F1030008F1030008F1030008F1030008AF
:10016000F1030008F1030008000000000000000097
:10017000000000000000000000000000000000007F
:1001800000000000F1030008000000000000000073
:10019000F103000800B583B000F0BAF9384B394AD2
:1001A0001360394A1360394900E02146384B9942BF
:1001B0000BD20A684B6801F10C0488689842F4D9A4
:1001C0001168196004330432F8E72E4B1A68314B7A
:1001D0009A4200D0FEE72C4B1A682F4B9A42F9D175
:1001E000274B2E4A13602E4A13602E4B05E0002049
:1001F000106004329342FAD80B462B4A934204D241
:10020000194651F8082B5B68F4E7244B1B6813B9B7
:10021000234B1B6803B1FEE700F086F9694601A88D
:1002200000F022F9214C224BE41AA4100025AC4224
:1002300014DC204C204BE41AA4100025AC4213DC43
:100240000099019800F08EFC05461C4C1C4BE41AEA
:10025000A410002C0EDC284600F0E2F8144B53F8F2
:10026000253098470135E2E7134B53F8253098477E
:100270000135E3E7013C124B53F824309847E8E797
:10028000BABADECA0000002074000020F40300089F
:100290000C04000878563412325476987800002006
:1002A000180100200C0400081C0400081C040008AD
:1002B0001C0400081C0400081C0400081C0400089E
:1002C0001C04000808B5FFF765FF00BEFEE71EF03E
:1002D000040F0CBFEFF30880EFF309807146414A29
:1002E00010472DE9F04182B004468846124B5E6B00
:1002F0009F6B9D6A1B6B13F0020F03D00E4BDB6AE2
:10030000002B0CDB0D4800F0B7F8CDF800803B4621
:1003100032462946204600F00BF900BEFEE74BF6B8
:10032000AB6100F07FF90028ECD0034B4FF00042A6
:10033000DA6202B0BDE8F08100ED00E0B41500081B
:1003400000BEFEE71EF0040F0CBFEFF30880EFF3D2
:1003500009807146244A10472DE9F04182B00446D5
:100360008846084B5E6B9F6B9D6A074800F084F8D7
:10037000CDF800803B4632462946204600F0D8F8AA
:1003800000BEFEE700ED00E0C41500081EF0040FFB
:100390000CBFEFF30880EFF309807146134A104752
:1003A0002DE9F04182B004468846084B5E6B9F6B96
:1003B0009D6A074800F060F8CDF800803B46324661
:1003C0002946204600F0B4F800BEFEE700ED00E04C
:1003D000D015000800BEFEE700BEFEE700BEFEE747
:1003E00070470000E302000859030008A103000859
:0403F00000BEFEE766
:1003F40028AE0008000000207800002028AE000885
:100404000000001000000010780000201C010020F3
:080414000000001000000010C0
:10042000FEE7000008B503460C4A12685AB10B4AB1
:100430001068033323F003030344094A934206D8A8
:10044000064A136008BD054A06491160EFE700F04F
:10045000AFFB0C2303604FF0FF30F3E77C0000207C
:1004600000FC00201C01002001230360014B0B60F5
:10047000704700BF040000200FB400B583B004AB88
:1004800053F8042B01938021064800F0C3FB002899
:1004900003DD0146034800F037F803B05DF804EBD4
:1004A00004B07047840000202DE9F04385B0044675
:1004B0000F4643560BB10E461EE004252846214642
:1004C000ABBE0446384605B0BDE8F08314F9011B05
:1004D00004AA1A4402F8101C0133AB42F6D304AA52
:1004E0001344002203F8102C4FF00408E94640465C
:1004F0004946ABBE8046761B002EE3D03546102E13
:1005000028BF10250023E8E708B5FFF7CDFF08BD99
:1005100008B500F097F8024A024B9A6008BD00BF88
:100520000000000800ED00E008B500F0ABF808BDE1
:10053000F8B504460D4617461E462748FFF79CFFB0
:1005400021682648FFF798FF61682548FFF794FF68
:10055000A1682448FFF790FFE1682348FFF78CFF6C
:1005600021692248FFF788FF61692148FFF784FF6E
:10057000A1692048FFF780FFE1691F48FFF77CFF72
:100580001E48FFF779FF29461D48FFF775FF1D4CF0
:10059000E16A1D48FFF770FF216B1C48FFF76CFFF5
:1005A000E16B1B48FFF768FF15F0800F0AD115F4C7
:1005B000004F0CD11748FFF75FFF06991648FFF769
:1005C0005BFFF8BD39461548FFF756FFEFE73146A8
:1005D0001348FFF751FFEDE798140008A81400082E
:1005E000B8140008C8140008D8140008E81400085B
:1005F000F814000808150008181500082815000848
:100600003415000800ED00E04415000854150008FA
:1006100064150008941500089C150008741500085E
:100620008415000883691A888A4201D00020704727
:100630000268033A012A03D802338361012070471C
:10064000002070470C4B1A6842F001021A6000212A
:1006500099601A6822F0847222F480321A60074A84
:100660005A601A6822F480221A60D960044B4FF055
:1006700000629A60704700BF0038024010300024CA
:1006800000ED00E0224B9B6803F00C03042B14D018
:10069000082B16D01BB11F4B1F4A1A6002E01D4BDE
:1006A0001D4A1A601A4B9B68C3F303131B4AD15CA3
:1006B000184A1368CB4013607047164B164A1A60ED
:1006C000F0E7134B5A685B6803F03F0312F4800FA6
:1006D00013D0114AB2FBF3F20D4B5B68C3F38813DE
:1006E00003FB02F30A4A5268C2F30142013252008C
:1006F000B3FBF2F3074A1360D4E7074AB2FBF3F205
:10070000034B5B68C3F3881303FB02F3EAE700BF04
:10071000003802400C0000200024F400E01500081E
:100720000F2900F2D78010B4012847D020B1022849
:1007300000F0868010BC7047032AFBD8DFE802F087
:1007400002122130644B18684900012202FA01F4B8
:1007500020EA04001860186811448A4020EA020266
:100760001A60E7E75C4B18684900012202FA01F4BD
:1007700020431860186811448A4020EA02021A6077
:10078000D8E7554B18684900012202FA01F420EA23
:1007900004001860186811448A4002431A60C9E7CF
:1007A0004D4B18684900012202FA01F420431860F9
:1007B000186811448A4002431A60BBE7032AB9D87B
:1007C000DFE802F002122130444B18684900012290
:1007D00002FA01F420EA04001860186811448A4003
:1007E00020EA02021A60A5E73C4B18684900012282
:1007F00002FA01F420431860186811448A4020EA84
:1008000002021A6096E7354B18684900012202FA85
:1008100001F420EA04001860186811448A40024379
:100820001A6087E72D4B18684900012202FA01F48B
:1008300020431860186811448A4002431A6079E71F
:10084000A1F10D03DBB2022B3FF674AF032A3FF692
:1008500071AFDFE802F002122130214B1868490025
:10086000012202FA01F420EA040018601868114419
:100870008A4020EA02021A605CE7194B18684900B6
:10088000012202FA01F420431860186811448A40DA
:1008900020EA02021A604DE7114B18684900012254
:1008A00002FA01F420EA04001860186811448A4032
:1008B00002431A603EE70A4B18684900012202FA17
:1008C00001F4204318601868114402FA01F1014351
:1008D00019602FE7704700BF00000240000402408B
:1008E000000802400F2904D8012817D010B10228AF
:1008F00028D070474AB1012AFBD11F484368012222
:1009000002FA01F119434160F3E71B4843680122F1
:1009100002FA01F123EA01014160EAE74AB1012A42
:10092000E7D116484368012202FA01F119434160F8
:10093000DFE712484368012202FA01F123EA0101CC
:100940004160D6E7A1F10D03DBB2022BD1D84AB149
:10095000012ACED10A484368012202FA01F10B4371
:100960004360C6E706484368012202FA01F123EA20
:1009700001034360BDE700BF0000024000040240E5
:1009800000080240022804D801280FD010B1022824
:1009900018D0704731B10129FBD1104B4FF0FF3215
:1009A0005A61F6E70D4B00225A61F2E731B1012995
:1009B000EFD10B4B4FF0FF325A61EAE7084B0022B0
:1009C0005A61E6E731B10129E3D1064B4FF0FF321E
:1009D0005A61DEE7034B00225A61DAE70000024069
:1009E00000040240000802400E4B1A6842F0010267
:1009F0001A609A6822F001029A609A6822F0020254
:100A00009A609A6842F080029A609A6822F04002E6
:100A10009A609A6822F020029A609A6822F0100286
:100A20009A607047003802401F2927D8032827D82A
:100A3000DFE800F00C02141C10B4124C236B0122EE
:100A400002FA01F11943216310BC70470D4A536B40
:100A5000012000FA01F1194351637047094A136CF0
:100A6000012000FA01F1194311647047054A536CE3
:100A7000012000FA01F119435164704700207047CA
:100A80000120704700380240024A136823F0040333
:100A90001360704710E000E0024A136843F002035D
:100AA0001360704710E000E0014B1860704700BF12
:100AB0000401002089B108B50A46431E07494B606E
:100AC0000B6843F001030B601046FFF7EDFF044B8A
:100AD00001221A70FFF7E0FF08BD704710E000E048
:100AE00008010020024B1868C0F30040704700BFA7
:100AF00010E000E008B50A4B1B784BB9094B1A68A7
:100B00001A601A6822F001021A6000225A609A6084
:100B1000054B1B6803B19847FFF7E4FF08BD00BF12
:100B20000801002010E000E00401002010B50B4C8B
:100B300023889BB20A4AD15C0020FFF723FF238859
:100B400001339BB2238023889BB249F6050293426E
:100B500000D010BD00222280FBE700BF0A01002068
:100B6000F015000810B5FFF73FFF00210120FFF747
:100B70005BFFFFF789FF002406E0012221460020E9
:100B8000FFF7CEFD0134E4B2072CF6D9002406E0CD
:100B9000002221461046FFF7A5FE0134E4B2072CDF
:100BA000F6D902497D20FFF785FFFEE72D0B0008EF
:100BB000014B1868704700BF1000002030B5141EAC
:100BC00005469BB0184605DA8B232B604FF0FF30AB
:100BD0001BB030BD4FF40273ADF80C3014BF04F1FC
:100BE000FF332346029305934FF6FF730091049160
:100BF000ADF80E3002461E9B6946284600F072F89A
:100C0000431CBCBF8B232B60002CE1D0009B002237
:100C10001A70DDE707B5009313460A4601460348FC
:100C20000068FFF7CBFF03B05DF804FB1000002065
:100C30002DE9F0478E689E4282460C4690469946C2
:100C400037D88A8912F4906F31D0256809696F1AF4
:100C50006569022305EB450595FBF3F509F10103F1
:100C60003B449D4238BF1D46530530D5294600F010
:100C700079FB064650B90C23CAF80030A38943F02B
:100C80004003A3814FF0FF30BDE8F0873A46216969
:100C900000F0F6FAA38923F4906343F08003A38164
:100CA000266165613E44ED1B2660A5604E464E45BB
:100CB00000D94E4632464146206800F0ECFAA3685F
:100CC0009B1BA36023681E4426600020DCE72A46A5
:100CD00000F0A2FB06460028E2D12169504600F050
:100CE000F3FAC8E72DE9F04F9DB0804603938B8956
:100CF0001D060C4616460FD50B696BB9402100F056
:100D000031FB2060206128B90C23C8F800304FF077
:100D1000FF30C7E0402363610023099320238DF84F
:100D2000293030238DF82A304FF0010B37463D46ED
:100D300015F8013B0BB1252B3ED1B7EB060A0BD0C2
:100D40005346324621464046FFF772FF013000F01D
:100D5000A480099B534409933B78002B00F09D80AD
:100D600000234FF0FF32CDE90523049307938DF85C
:100D700053301A932F46052217F8011B4F4800F0F5
:100D80002FFA049BD0B9D90644BF20228DF85320F6
:100D90001A0744BF2B228DF853202A782A2A15D00F
:100DA000079A2F4600200A25394611F8013B303BAF
:100DB000092B4DD9B8B10FE02F46B8E73F4A801A4A
:100DC0000BFA00F0184304903D46D3E7039A111D37
:100DD00012680391002A01DB079204E0524243F0BB
:100DE0000203079204933B782E2B0CD17B782A2B9D
:100DF00033D1039B1A1D1B680392002BB8BF4FF021
:100E0000FF33023705932E4D39780322284600F030
:100E1000E7F938B14023401B03FA00F0049B034379
:100E200001370493397827488DF8281006227E1C54
:100E300000F0D6F9002838D0234B13BB039B0733AF
:100E400023F0070308330393099B4B4409936DE791
:100E500005FB023201200F46A6E700230137059368
:100E600019460A25384610F8012B303A092A03D9C9
:100E7000002BC8D00591C6E705FB012101230746D9
:100E8000F0E703AB00932246104B04A94046AFF3B2
:100E90000080B0F1FF3F8146D6D1A3895B063FF5C4
:100EA00036AF09981DB0BDE8F08F03AB0093224622
:100EB000064B04A9404600F081F8EAE7F5AD0008CA
:100EC000FBAD0008FFAD000800000000310C000879
:100ED0002DE9F04791461F468A680B69DDF82080AE
:100EE0009342B8BF1346C9F8003091F84320064634
:100EF0000C4612B10133C9F800302368990642BF8D
:100F0000D9F800300233C9F80030256815F006051D
:100F100007D104F1190AE368D9F800209B1AAB4203
:100F200028DC94F843302268003318BF012392066E
:100F30002DD404F1430239463046C047013020D059
:100F40002368E568D9F8002003F00603042B08BFE6
:100F5000AD1AA36822690CBF25EAE5750025934206
:100F6000C4BF9B1AED184FF000091A344D451AD131
:100F7000002008E00123524639463046C047013080
:100F800003D14FF0FF30BDE8F0870135C3E7E1182A
:100F90005A1C302081F84300224494F8451082F80E
:100FA00043100233C5E70123224639463046C04785
:100FB0000130E6D009F10109D8E700002DE9F0433E
:100FC00001F1430C0C46097E85B06E291746064692
:100FD00098460C9A00F0B38022D8632936D00AD8FC
:100FE000002900F0B980582900F0838004F14205FF
:100FF00084F8421032E0642901D06929F6D12068D2
:101000001368050603F104012AD51B681160002B43
:1010100003DA2D225B4284F843206F480A2239E02C
:10102000732900F09D8008D86F2920D07029DDD168
:10103000236843F02003236003E0752917D0782943
:10104000D4D1782384F84530644855E01368191DDD
:101050001B68116004F1420584F8423001238CE0E2
:101060001B68116010F0400F18BF1BB2CFE7136868
:101070002568181D1060280601D51B6802E0680667
:10108000FBD51B8854486F2914BF0A22082200216F
:1010900084F843106568A560002DC0F29580216832
:1010A00021F004012160002B3DD1002D40F08E8005
:1010B0006546082A0BD12368DB0708D523696268D7
:1010C0009A42DEBF302305F8013C05F1FF35ACEB59
:1010D00005032361CDF800803B4603AA2146304634
:1010E000FFF7F6FE01304DD14FF0FF3005B0BDE8FF
:1010F000F083394884F84510136821681D1D1B686A
:1011000015600A060BD5CA0744BF41F020012160D3
:101110001BB9226822F0200222601022B7E74D0698
:1011200048BF9BB2EFE76546B3FBF2F102FB113318
:10113000C35C05F8013D0B460029F5D1B9E71368FA
:1011400025686169181D106028061B6801D51960A3
:1011500002E06A06FBD51980002323616546B9E7E2
:101160001368191D11601D6862680021284600F08F
:1011700037F808B1401B606063682361002384F87E
:101180004330A7E723692A4639463046C047013035
:10119000AAD023689B0713D4E068039B9842B8BF8A
:1011A0001846A3E701234A4639463046C047013076
:1011B0009AD00135E368039A9B1AAB42F2DCEBE765
:1011C000002504F11909F5E7002BACD1037884F868
:1011D000423004F142056CE706AE000817AE000885
:1011E00001F0FF01102A2BDB10F0070F08D010F8D8
:1011F000013B013A8B422DD010F0070F42B3F6D1DC
:10120000F0B441EA012141EA014122F007047FF0F4
:1012100000070023F0E80256083C85EA010586EA4B
:10122000010685FA47F5A3FA87F586FA47F6A5FA87
:1012300087F68EB9EED1F0BC01F0FF0102F0070293
:1012400032B110F8013B013A83EA010313B1F8D13E
:101250000020704701387047002D06BF354603381F
:10126000073815F0010F07D1013015F4807F02BF58
:10127000013015F4C03F0130F0BC0138704700BFA9
:1012800010B5431E0A44914200D110BD11F8014B24
:1012900003F8014FF7E7884210B501EB020307D8C6
:1012A000421E99420AD011F8014B02F8014FF8E7AB
:1012B0008342F5D98118D21AD34200D110BD13F858
:1012C000014D01F8014DF7E738B50546002945D035
:1012D00051F8043C0C1F002BB8BFE41800F0D2F802
:1012E0001F4A1368104633B9636014602846BDE88E
:1012F000384000F0C8B8A3420CD921686218934264
:1013000004BF1A685B68636004BF521822600460FF
:10131000ECE713465A680AB1A242FAD9196858187C
:10132000A0420BD120680144581882421960DDD1D7
:10133000106852685A6001441960D7E702D90C233B
:101340002B60D3E7206821188A4204BF11685268D5
:10135000626004BF091821605C60C7E738BD00BF48
:101360000C01002070B5CD1C25F0030508350C2DAF
:1013700038BF0C25002D064601DBA94203D90C23FA
:101380003360002070BD00F07DF8214A14682146CA
:1013900091B9204C23681BB9304600F063F82060F7
:1013A0002946304600F05EF8431C24D10C233360FC
:1013B000304600F068F8E4E70B685B1B18D40B2B91
:1013C0000FD90B60CD50CC18304600F05CF804F11A
:1013D0000B00231D20F00700C31AD3D05A42E2505D
:1013E000D0E78C424B6816BF636013600C46EBE796
:1013F0000C464968CCE7C41C24F00304A04205D085
:10140000211A304600F02EF80130CFD02560DBE7FE
:101410000C01002010010020F8B5074614460E46C6
:1014200021B91146BDE8F840FFF79CBF22B9FFF78C
:101430004BFF25462846F8BD00F026F8A0420FD203
:1014400021463846FFF78EFF05460028F2D0314688
:101450002246FFF715FF31463846FFF735FFE9E72B
:101460003546E7E738B5064C0023054608462360B5
:10147000FEF7D8FF431C02D1236803B12B6038BDAF
:10148000140100207047704751F8043C181F002BCE
:10149000BCBF0B58C0187047537461636B206672F1
:1014A000616D653A0A000000205230203D20202561
:1014B0003038580A00000000205231203D202025FD
:1014C0003038580A00000000205232203D202025EC
:1014D0003038580A00000000205233203D202025DB
:1014E0003038580A0000000020523132203D2025BB
:1014F0003038580A00000000204C52203D202025A2
:101500003038580A00000000205043203D2020259C
:101510003038580A0000000020505352203D20254A
:101520003038580A000000004653522F4641523AC4
:101530000A0000002043465352203D202025303829
:10154000580A00002048465352203D2020253038BC
:10155000580A00002044465352203D2020253038B0
:10156000580A00002041465352203D2020253038A3
:10157000580A0000204D4D464152203D202530386C
:10158000580A00002042464152203D202025303894
:10159000580A00004D6973630A000000204C522F66
:1015A0004558435F52455455524E3D2025303858DA
:1015B0000A0000005B486172644661756C745D0AE4
:1015C000000000005B4275734661756C745D0A0033
:1015D0005B55736167654661756C745D0A00000058
:1015E00000000000000000000102030406070809D3
:1015F000EFC7CFEF35321A423E14FB00F9F0F4107A
:10160000F5DFE0092C0815362C131B1C05E9F7FA49
:10161000E3E4F2121A071B310FFF0D191F1D312BC6
:10162000FFE8EA0A07ED1719FFFBFE13120E1D165D
:10163000F8F905240B02200CF3E4F0ECE3ED01E1F2
:10164000CAC3D9FCEF0B2D1DFAF5F4ECE6F908F846
:10165000EDECF903F5FA09EDE4ECF0FB090BFFE81A
:10166000DCCEC1E1D7E0F7F5FAF4FC05101B23113D
:1016700009F6FB1E0C071614FFF7FAFC000B10FF0F
:10168000EFE5F02426122E200BEFECEADCE8FAFA64
:10169000F0F0F82B2C2C545539221A0EFCFCFDE5E9
:1016A000D2C6C2D9F0EC081D140A0614060202F8CC
:1016B000E1D9D9F115051C352009FCEAD7CFDBE1CA
:1016C000D3D5D5DDFD0401110A04F3E8EFEFFA05E7
:1016D0000A00FAEF1A2B0C151C0AE2DCDED5D3E760
:1016E000F4E5DAD9F3130E1B3C312116110A070A6F
:1016F0000DFCE8E4E50A0707272E2113141415153D
:101700001705F2E6E2FB06F7FE08FDE9E9F5FF132F
:10171000191E11FFF50D1F000A1A0BF7FB01060B2E
:101720001111F5E7D9F503F0051004F6EEF0F3F624
:1017300004FEECDED0F50DFA0B221403000604F9CA
:1017400001FFE6D8DAFC06F616250AFB03040605B7
:101750000B01E0D6D0E8E2CFE9EEDEDAE5F4FFFFF8
:101760001614040512342520342305F5F704ECE1A2
:10177000F2D6C8C8F30BFA1A321B03031815F40388
:10178000F9D9D3E91D10153D331C0E1415F7F8FFD8
:10179000E6D7D8010AF720270CFAF50DFAF60B0464
:1017A000F2DF041D0219361BFCEC04FBDFF0E8D469
:1017B000C2DE0DF9F91F1AF6E1FD04DDEDF7D9BC23
:1017C000D20FFEFF353D1A011E1FF0EFF3D4B5C056
:1017D000F9EED9030AEDD1EAFFDAE600F2DBEC2BF1
:1017E00029174B582F0A1421EDDEFCE7C7D5131536
:1017F000073C4821F7F907DECDECDEBDD4192009FE
:1018000039523418263C0CF60EFAC9D813120627A2
:101810004225040A11EBD7F1E8C8DC161209293E6B
:1018200023FD1011E7CFE2D2A7BEF8FBF7243D2D30
:10183000122525F6E1E8DFB7CF0501FB1A2F1A02C2
:101840000E11ECDAE6DAB0C0F5F2E8061D16FE0E6F
:101850001AEFE4EEECD3E1161A0F2234280F12200F
:10186000FDF1F6F9E6DEFF00F6F710181519281A53
:1018700002FEF1E8D8E6F5F4F70310171A2934232D
:1018800018110FFDF4FCF8F1EDF2FE090E1A1D0C13
:101890000602FDF9F1F6F2F0F6FE04090F13170F38
:1018A000110D05FAE4DECFCDCED3DEF1FE0C1D1C0A
:1018B0001D1C1C09F4E8E7E1DBDFE8F2F70C19175F
:1018C0000B0E02E7D3C9C4BCC4CCDAEAFA0C222C52
:1018D0002F31251B0800FAF1F1EBF2FBFE0B1C2661
:1018E00020110B00F2EBECECEAEAF4FE0009171B06
:1018F000120E0905FDEEF6F9F7FB03171C2336431C
:10190000341E171803EBEFEBE3DCE1F0F4FB1120DE
:10191000190F181605F8EDE9E4E7ECF3030B0B0ECD
:101920001917100F1105E9E2E4DFD1D7EFF1E4F365
:10193000131D10141E0EF7E7E1D6C9C9D4DBDBDC9A
:10194000EE0C17131A1A0EFDECEAEEEEEBF202049F
:1019500006132C301D1D190EF9EAE5DBD2D7E7F787
:10196000000D1E2E403D3B2F170AF4D9CBD0D6D800
:10197000EB020E1C2B3D4034362A0BFBEEE4D9DD86
:10198000F0F4000E171C1F3138261B0EFDEDDCD8BD
:10199000CBCDD6DCE7F40511101D28140D0905F494
:1019A000E1E0D9D7E2E9F6FD040E0C101C1406FEA6
:1019B000FEF0D3C8C2C5CACCDDE5E7F702111E1D93
:1019C0001E10FEF6E8E2E1EBFDFD0C1C1D282B339A
:1019D00031190E07F6E6D5D0CAD0E7EE0217212C52
:1019E00025282A19120801F8E4E5EAF4050B1F2A54
:1019F000272B2A271D0E0AFCEDE3DBDDE4F80400AB
:101A00000F1F201F1B201803FCF5EDDFD5DADDE4E6
:101A1000EEFD0D0E14140D0D0502FFFAF2DCD0D709
:101A2000E7EEEE010F08FF0003F8F3F5EFDECCCB95
:101A3000CED4EAF7FF0F17181113180FFFF9F8EAC1
:101A4000D9DCEFFC020C1F241F1F21190C0B09FF0E
:101A5000EEE5DDE3F5FD051A2A27170E110A02FB54
:101A6000FCF2E0D9DDF10111262F2B221B190F0BFF
:101A70000702F8E3D4DDF6090E1722231309110C2F
:101A80000200FBF0DBD2D8E4F1F205120A01F9F909
:101A9000F3EDF3F6EFE9E2E7FA0F181E272412FF41
:101AA000FBF2E2DADDD8C5B9BBD1E9EEFA0B0D08DD
:101AB00001050704080A06F7EDEFF8111C1C2C308D
:101AC000200B030800F2ECECE4D2D2E8030A13285E
:101AD00030271A1A1B08FBFDF9ECE0DEE3F6080ECE
:101AE000222C2A25181A18100B06FEE7D5D9F0FE6D
:101AF0000214282109020804FEFE05FDE8E1E8FCC5
:101B00000708121D180AFCFCF8EEEDE9E3D6CFD663
:101B1000EFFF030E1F180D0D0B09EDF2FCF1DCCBEE
:101B2000CBDAEFF2060AFC02EAECF5E9E8EBE7D2E1
:101B3000E1DEEF0C162A422B2E261D3D1C100FFB5A
:101B4000D8AAB7DB07190E160700F721413916F09E
:101B5000DDB9C1E91422203F45271E0F16210BEBEA
:101B6000E6F409FBE4E3FE06031B4A58351CF6E1E4
:101B7000D4D6EBE1C3D7F90F0A325B4015F2F7EE8A
:101B8000D3C7D4D2C1BEC4E51C25262D261D0F0DFA
:101B90001812EDE6E3C2AFB9EF0C02000303F3F94C
:101BA000071004F2F1E7C5B3C6EF1108142F372F61
:101BB0001B0E11170E06FAEFD8CDD5EBEFF3112A55
:101BC0001C011116FAF1090EFFE8E6112018344441
:101BD0003E30161603FEFFEEF2DDC9C6E30508101F
:101BE000323419050A24120A07FCE6CACBEC080AAB
:101BF0001B2C2B1404FEF7EAD5CCD7D7CECDDF07AC
:101C00001013263323FDF80B02F3F5FCEAC3C6EBF1
:101C100003FD0324270AF5FA0504EFF8F5E3D3B72B
:101C2000BDDDE3E70E2C32170E2017FDFC0D00E69C
:101C3000EE0C241B0A29433326262312FEEEE3D0A2
:101C4000C1B8BEE0F8F50F2F2911001A1F1718149C
:101C500009EEDDE5FB0A0C1A322F23150A01F3EF1A
:101C6000F1FAF5E2D3DFFB01031D28211407170168
:101C7000ECEDEDE6D3DAE2E9F2F3041B1C26171BC8
:101C80002917160F11FDC7BBCAE7E8D6F3F4E4E441
:101C9000E1E9E6F0FCF3F0EBE9E1DDF301052432E4
:101CA0003117162703F4F4F9F0DEE9F1F405021216
:101CB0002627342C2015080A00FCF6DEEBE9F71382
:101CC0000B201E0E160B0E0F05100BFAF6E3E1E2C9
:101CD000F41B131C271E0AE5E0EBDAE8F3EEE9D368
:101CE000D0CECAF206193127351C0404F2E3E1EB29
:101CF000F1D9BDBAB8C8E1F00B0E1A2F1F201C177E
:101D00000CFA041400EFF2E9EAF1021710161D0AAA
:101D1000F9F6FBF6EDF202FAFAF804171121251A8A
:101D20001B1C0F08070907FE0302F0F2F8F8F7FA88
:101D300004151C172824212223302A2A1CFDE9DF40
:101D4000E2F0030B161D242B25292D3A3D2E2822C7
:101D500008EDE4D4D9F0FAFE0A141E241714191061
:101D60000B101F1C0D04F8FB0F28211E2322210D30
:101D7000000103FDFBFEF9FAF6E8D8DAF1001022C3
:101D8000302B2A272312050D090C06F7EFE1D5DDCC
:101D9000F2FF010D070C120AFFFE09FE010801FA0D
:101DA00002F7E6ECF3F7081C211F1519140808FDCB
:101DB000020E0A080501FD040B030C0F0B0B0903AF
:101DC000EEECE4E0F609FAEFFBFAF90216202B2F0D
:101DD0002A27140A0A02FFF0EEE9DDE8E7E0DEEA6E
:101DE000E8E4F50C2219181006FCF4FC01FDF4EDF2
:101DF000E4DCEF04FDFA0213170F0D0A03FFF0FAFB
:101E0000FEF3F0EDF2EAFC00F4010203F6F2F3E671
:101E1000F1F3F4F7FBF0F0EEE6F40A181318160CE1
:101E20000D0505F1E1E7D6E1DDD7DAD3CDE500090F
:101E3000100D221A1117010103F9F5FAF2D9E1E2A6
:101E4000EAFE0606060104F7ECF9F4FDFDF1FFFFDA
:101E5000FEF4ECF4F20A0D15151503ECF6F9F5EDA8
:101E6000FC01FDEFDBDFE4F5050B130D1E1C0A0C76
:101E700002EDECE8E4E7D9DAD9D4E2EAFB0A20285B
:101E8000261D0B0AF5F6FAFDEFDAD9D0CBCCE1F03E
:101E9000F604000C1509090602020F13170A00E7E1
:101EA000D7EEEEFA01FD0E170CFAF4EAE9EAF3F4C4
:101EB000E5DEDEE4F10F10132B242F210B1000F5CB
:101EC000DAE1F0E8D9DBDCE3FB011717121C16118D
:101ED0000906FAE5F501FADBD8DFD9F1F701130BB2
:101EE00015240A141B1219071105E5E5E6E0E3F8CD
:101EF000FF040217150301F9FF08050AFEF3ECEAD7
:101F0000F2FE242B2F1A211E0000FAF1EFEDEFFC58
:101F1000EDE3DDDAF30A0A0A0B1D2C16FAFDFFF5D4
:101F2000010F11FAE1D7CEE6F7FC0713212A0CFBCB
:101F30000D0B01EFF0F2E8E5E3D7EAF6051A2834D5
:101F400031170206EBDDD8ECFCE6D9E5DFF6181117
:101F50002E3D34331E1509F8F1EAE9EED3BAC8D4A0
:101F6000EEFDF808151F2B1C1E150B0B110A04F0B3
:101F7000DCE3D9EFECEF100A0B1200010D0907FDAD
:101F8000F1F6DCD9D4CEEF00071C1F142620180B65
:101F9000F8FFFCF901EEE3D7D6F60A0A1F27232142
:101FA0000600F2EF07FDF2E8D6D5C9D1F803011B10
:101FB0001F312E192C170F140F0D08FBE1C9C5E8AE
:101FC000EAE6FD0E2105F4FD0401FC050800F0F22F
:101FD000D8EA200F091319260D051C0AF2E6DDF6D2
:101FE000F5E6E9D6F00F0204132823FDF90EF4F20A
:101FF000040B0FF7EDE5DCFE11F80819140FE6F5F8
:1020000014FAF6F70108EAE2E6D9F704F2112729F3
:102010001BF60712F1F9021008E2D7D6D4FD12140C
:1020200030292311F00E07E3E5E4F9EECDD5D7D141
:10203000FD01011F2742361B2A0DEDFB050FFBD1C9
:10204000DAD9D3F9F600150A1402EB0604030C02E0
:1020500000ECDBF3E6EB0DFB10181225140915FB61
:10206000ECF3F70DFBDEDBC6E80E0C27251E270A76
:10207000FB07F6FAFEF4FAD2C1CECF0321141722E1
:1020800029361B171C051507000DEDCFC5CFECF148
:10209000F61B242611DBF1F9F608040C04F1EDE23D
:1020A000F323110A2C161100F40DFDF9F2F40C08BB
:1020B000E7E0D6E80DFB04191E1FF4F805F0FB0B52
:1020C0001B1DFAD2D7DA0A19F915191C21020C15B1
:1020D00001FAFCF6F7DDD0E4EE0BF9FE25343B1CEB
:1020E000000500F5FA010C02D4DBDBFA26153548B1
:1020F0002E0EE9E6FDF0EFF9F000F4D4DDE6090A72
:10210000FF15171B17082119EE001B2421FCE7D32C
:10211000DB09F4F1141A05EFEDFBF4F7152019ECC7
:10212000CCD9E7080D041B22312201151DF7F8FE5A
:10213000FAECCDD8EEFC04FF1D393A22010502F776
:10214000F8F2F4F5CABDD0F7120526463004EC03C8
:10215000180D060E1209F2E9E3EF05EDF7100F0076
:10216000E4F510F5DFF3131DF8E6E4F304FC16289C
:102170002316F6FA08FFFB05201CE0BBC4F20DF89D
:102180000B231D0801191400FBF8FBEACBC2D50C88
:102190001DFD07273425070E0CF7EBF914F1CAC70C
:1021A000E00000091E2E320DE8E8ECF1F9040CE81D
:1021B000D4D8FA210A051E2507EBFD07FC0709FD07
:1021C000EAD6DAED0D0EF30C20170CF8FC05F7ED4E
:1021D000FF13F4D5E5FE06F4062E3C2901F60E0B9E
:1021E000FE0006F1BFAEB7E403F71640380FFA164B
:1021F00024150A02F0E2BFC4F30AFF001D241605ED
:102200000A1611F3EBF3EED2CFEA0901071F2928D2
:1022100005EDF600E6E30306EAD6E70B1217253EC6
:10222000380EE9FE09F6F2FB05DBC7CBF51A070508
:102230001815FCE6F10C09F8FB0704EAE3092B0F7B
:10224000FC141E0BF7FA0C07ECE7F5F7DACFE80EF3
:102250000D0B1E292B19FAFF0BF0E7FFF9D1BBD1AB
:1022600000060522322A0A04191401F504F0C7B643
:10227000C4F013100F23240AF607180BEFF2F4DE54
:10228000CAD4031B080D28230F100D0CFEEBECE93C
:10229000D8CEE105201C2839332202F203F9DFE40D
:1022A000F2E7D5E60D151D242F3512F8F50600E5E9
:1022B000DDE4D3C3CEF00F22262E330DE7F3090061
:1022C000EFEDEFDDD1F71B29251932310FFF0F1488
:1022D00003EAD9DFE7DEE4FD191D182B2E0AE0E73B
:1022E000E9EAECEEDFBFBDD50926364D56440717A7
:1022F0005A715F4F391E01E2112F21F5EAF8FCD423
:10230000CFFBFBEAF90CECCCC5F6202210140EFC36
:10231000F2F5E6E2F5E5F0DAE0000A1909F40A0C54
:10232000FCF7FB00F2F2DDCEC2B1B3CFE7FC09153A
:102330003536200CF4FE06DEDCE3DED2D2F91D36A3
:10234000415057320DFF05F6CBCBC9AE98B5F10021
:10235000FF1A4D64431D141D03EAE5D1B48B89B106
:10236000C5C2C8DF050814334D4D36341CF5DEDD1B
:102370000608E5D0E307FBECE2F0ECE5D8EFF7EC7C
:10238000F2EFE9E6F7FC2735241017191D0F181492
:1023900000ECD6F4011418272F17FE090100F5DD13
:1023A000D8C8C9B9E41208122628260F0B1201E971
:1023B000BABCCCB6BAD7FF111E445456523611F1EE
:1023C000E8DBC1B7AA9FA3AFEB050323395539203A
:1023D0002009FEE9D2DED8AEA9C4ECF3FA1B1E2612
:1023E0001F14333A240D05FBCDC9D2CFDED5EAF94F
:1023F00013361A1C24241D02FBFCE0C7AEB9DDD441
:10240000DAE3FD0DFC011B2A2D2430390DF0DAE052
:10241000EDEFFA070F1405FEFF0104F3F70B1D0D96
:102420000504232D0F0C1D281809FAFFEADDD3D669
:10243000EDE2DFED0318180E232025280A0B0B0709
:1024400008F4F3F1CECDD1FA1B0808181B10FCFBE1
:102450001B03F3EBE6EDE7DDD0D4EE1E1729403881
:1024600037180B180FF3E8E2FAE9D6DDD2ED121CAB
:1024700023342D3411FDFBEDE8DBD2DBDDC1D0CF01
:10248000E1000E283F484F3B1E2C110000F2EEE108
:10249000D4D8CCD4FCF3F912252E231D2C23100103
:1024A000FC14FDE1DDD6D1EBF70718214238251BDE
:1024B0000FFEFDEEF1F8EBDBBEC5E2FD02162631A4
:1024C000332E3B2B13090902F7DDCEC1B3BCDCF17F
:1024D0000B1E1F32283941413B1B202506E8D9CA73
:1024E000CFD9DAE904121E0AFC1C20202B22241A60
:1024F000F1E9DCCCE1E5EEF7F80B09F3FBFF06169A
:102500001726261A06ECDEF0F9F0010A1014FFEC8B
:10251000ECED0B20322F08FFF3D4D5040808070791
:102520001409FC0303061324513D1502F1DDE8F202
:10253000EFFBF408FCE0EAF0F300123C4F391A0715
:10254000F4EBFFF8FCF6F905E7DDE8E7EDED0C3814
:10255000291B0CF8ED00111A2A1D19FCD9D5D9E058
:10256000E4F105FCE9ECEADAF617071D25312FF84E
:10257000F3ECE8F0EC050BF3F3F7F2F6162A2D284E
:102580001D23F8CAC7C8D7DFF51000ECF1F5F81B1A
:10259000393B4032311BE8D0BFC0CAE90807EEE53D
:1025A000EFE7002D364A463023EED5C8C1D9E0000A
:1025B00010FDE5D8DEE615323546413817E7E9DF8C
:1025C000E2EFF9160AEBDACBC4F41C2429263127F2
:1025D000F6E4F0FD0505181800E1D4C3CDFC09258B
:1025E0002C222C07E7E1DAF3F4010AEBD7C1BAB4E5
:1025F000E61B304E3E3D2EF7F0F1F806F801E2B54D
:10260000ACA8AAC1F81D343D41370EF4FAFD0E15F1
:1026100011FED5B4ABA6A9EF0B2036303F15F5025D
:102620000818171719EAC9AFAAB1DC171B2F312CEC
:1026300023F0E6F2021E151601D5BEB1AED80F1E6C
:102640002B292619F1E6F90D262D2A17F8D7C6B53C
:10265000BCFF131815FF03E6D8F2032E3B3E350EE0
:10266000F2D8C0BBE3FE070C0400F7DDEE062A48F3
:1026700046421CF3D7C4ADD5FB0812FF00F1CEDAF9
:10268000F21A39332E14F7D5CBBFD9090C1A140618
:1026900005D8CBE5F8282A2A1DF9DDC8BDDA1121B5
:1026A00028160E0FF0D4DAF423312F200AEDDECCF9
:1026B000D30E1E2618FE02E4C5D3D60C292B240BFC
:1026C000F8E4DBE41F414A381E0DF0CACBD4F51400
:1026D0001307F7EEE6E6E317343F391706EEC4C0FA
:1026E000C4E50914180E05F1F2E61941403F1F0F29
:1026F000FCCABFC3E20D080900FEF1EBE1FD202C8E
:102700002C120C08E1CCC8DF0C1C1D0702EFE9D825
:10271000F02236462D1410F0DCD7E00B1319FFF031
:10272000E8ECE3ED1B2D38240C07F4E1DBDC0C179F
:102730001609F9EAE4DBE00D2740301911FEECF34D
:10274000F51823200BF1E1D7CECBFC112C250D1071
:1027500004EDEEEC12262A1CF1DFD9D0CCFC1F3C94
:102760003A241B08EBEAE203201C12F5DFD3D3D195
:10277000F91232331B1500E9E9E0FA1924270AF8A7
:10278000E4DED7F41028271209FFE7DDDCEF0C1C8C
:10279000261101F3F3DCF20E1B261409FFE7E1DD3D
:1027A000E90E1B2714FEEEEADAE6FC12220BFCF31C
:1027B000E1E0E0EE14242F1F1602FAF0FA0A1022CC
:1027C0000EF4EDDBCFD0D80110211600F3F0E8F0C5
:1027D0000913200E01FBEFE9E9F1131E2B2514FE6E
:1027E000F5EEE3FE091B0FF8FAF1E1E5E4041A2225
:1027F0002006FAE9DCDDFD0E24210B08FDEBE5E8FF
:10280000FA0C1C2110FCECEBE501192D371E13FD11
:10281000E4DFD4E6FD081703F2EAEBE7F91A2D2FFF
:102820001C1608ECE0E0E8FA05120E00F5F3EEFEE7
:10283000152232201A14FDF1E5E7FB061707F5ED26
:10284000E2DFE0FF101D140B1004FAF5EAF709149B
:102850001703F9F9F6F40A1E302C1A1500F3E9DC17
:10286000E5F4060BF8F0E7E8E8F917242B1B16103F
:1028700000FFFFF903081207F1EADFDBE90212218A
:1028800016121105090504101C1F12F9EAE0D8D828
:10289000F50811150B13070404F6FF0A0C0BF5EAF3
:1028A000E3DADAEA0C1C272019100603FBF60813FA
:1028B0000F03EDEADCD9E7FB0918110D0D0107F84C
:1028C000EFFA0A0D06F6E9DDDADDF205102116173A
:1028D000151413080D1813150BF8EAD9DADBE7F114
:1028E0000405FF08070501FD041116221200F4EB90
:1028F000EAF1FF0A09FB02FCFEFBFA0209101614BA
:1029000002FCF1EAE7F2F701FDF703010803040A0C
:102910000C0F0DFFF6EDE4DDDEF3FAFDF7FD0A0E18
:1029200016181213191B1A0A0900EDE1E4F0F2F56A
:10293000EDEAF0F8000505141C1514111100F7F864
:10294000F5F0ECECE7E4EFFE060F1115171B20176E
:102950000D07FFF5ECEFF3EFEAECF6FAFB050501E6
:1029600005070B08040A06FFF4F5FCFCFE00010253
:1029700000030505111615130C0B01FBF8EFE8E732
:10298000EEF1EDF2FE02030813181B201A110700E6
:10299000F5E5E1E6E7E2E1EBF5F9081315181E2588
:1029A000211A1B12FCEDEBEBE8E7E7E1E0E9F2F8B6
:1029B000FE0F1C171518130900FAF4EBECEEEBE907
:1029C000F2FAFD020B1312171F18090301FDEFEBBA
:1029D000F1F1EDECF0F6FA020804090E0B0704041D
:1029E00001F4EFF4F2F6F8F8F4F4F903080D141614
:1029F000131012100801FFF7EEE7E6E3DEE5EDF055
:102A0000F8020B1111181B1312100904FEFAF2E957
:102A1000EAEEEDF40108070B1114131419150D0259
:102A2000FCF8F3F7FCF9F3F4FBFDFD050802040ED6
:102A3000110E0D0A060000FFFBFBFF050102060652
:102A4000070B0F100E0C0900F7F8FAF8F1F5FBF67A
:102A5000F5FBFFFF06070D0A0B0E0C060501FBF93F
:102A6000F5F7F1F0F8F8F8FD051515121417121B1B
:102A7000170EEBF2EAD7E0F411E9F0CBF13A49593D
:102A80003A23475855594533EFE10120303822F4B5
:102A9000DFEA1605D7C0D7F3F7F9ED012B2502E6DB
:102AA000F2EFCFE2DECFC5C6D8CBDCEEE4071604EA
:102AB000EDE1C595909EBACED6E4EDF0050E161167
:102AC00004FFF7F2E3D8CEE0F6EEF2FDF5ECEF0509
:102AD0001002FAEFF006132034352F3036312B3048
:102AE0002820201B272321292132250B0212200D0B
:102AF000080E09050B271F08FCF8F4F40A0E111044
:102B000019140F0F220E031E251C0DFDF2F0E3E039
:102B1000D0CBBDBECDC5B4ACA7A9ACBBB0BBD8DED5
:102B2000E5D9D4E0F7F80602172A24140D242B3C2B
:102B30003B3C545D614F3742473C32313A4E51374E
:102B40001C0AFC08160404131313F2DCEBE7E5DAA5
:102B5000D4E6E5DCCCBAA798999096B8E0EADDCB4C
:102B6000CFBFB3B3A6ABB9C2BEA8A0AFB8C1B7D8E8
:102B7000021B342A1C23363F3135506576715D5077
:102B80004E5959546A6A7453372E160BDEBEC6D49A
:102B9000E1D2AC9791A7A2A8CAEE1202E1E3E2E269
:102BA000D1BBC1D1F0F5D5BFB7CDD6C8F7153C3DE7
:102BB0001705EFEFE4D0CCE4FD04E9CFC1D3E3E7A0
:102BC00009285A7254443C4547302A38454A361938
:102BD000FCF80E02213F576E4B360DFE01E5DCDDA1
:102BE000EF07FAD6C3ACBDB8D0FF12412F16FDDEF9
:102BF000E2D5DEF0FB1B1E14F1D3E4E6F3192F53EC
:102C00004A27FFD3CEB7ACAAB5C6BFADA3878BA367
:102C1000B1DBE9112E2411F1FEF3ED030113282A93
:102C20001F0409140E30415A716D6C48382E1D2D49
:102C3000253A40201500FF0C021D3045675C6539C0
:102C40002B2B153032322C1409FBECF0DDED061184
:102C50002F1C0BEFC3C19FA7AB9D9E8B94928A8EB6
:102C60008690A9BDF3EFECE7C0C0A8B3CED6F0F0D4
:102C7000ECE5D7D8D5E5091B434D3F3F07FBE7D12E
:102C8000E2EA0903F4EDD8D3D1D6F9123C5C4F5DEA
:102C90004738341D3A4A5C67584E3731362E414D1D
:102CA00057735D624D27240614181D270CFDEBE0B9
:102CB000E9E8F7182B544A39330D0EF6F1FDFE0AF8
:102CC000EFDFCEB4BABAC1E6F51D260E0ADFD5C2D3
:102CD000ACB6B3C0B4A199868A8E89A8BAD9F6E1F8
:102CE000F2DDCECEBCD1D3EAF3ECEEDFE5F7F60FA2
:102CF000202E4D36322003FFDFDDDDE3F2E3E0D5A9
:102D0000D0DEDEF20610362B282E1317FBFC0A1A33
:102D100035313025151B222F4D51696A5C5B3D3BD7
:102D200021090E081E1A08FCE8EEE9E6031A394FDD
:102D30004351433A2C161F1B2928190AF0E2DFD70A
:102D4000F104132F1D1702EEE3C3C0BBC3CCB9AE11
:102D500095898D8897B6C7E2D8CCCCB9BBA9AEBC53
:102D6000C9E2E6E6D6C5CED0E30A10282A1811FB40
:102D7000F5E3D3D4D4E7E8DDCEC0C5CBD5F6092141
:102D800036272D26251C0610101B201915040309B3
:102D90000C29414B594D463C33341F1B15161F1649
:102DA0000FFFF8FFF60D313C53504F4F4650352A78
:102DB0002826362C26140100F7FA1120323729264E
:102DC000130BF0D2CCBFC7C7C1B69E9F9A92B1CBAE
:102DD000DFE2D2D1C4C4BBA2A4A5BDCDD0DDD2D583
:102DE000D8D4EF0A1A2C1D1406FEFFDED5D0D9E583
:102DF000DEDED1CAC8B7C5E7FE110F0C0D0608F11B
:102E0000EAEFF1060603F2DDDFDBDDFC122B2C1905
:102E1000160B0F04F1F0F00204FEFBF1EFE5DFFC0E
:102E20001A30423E45434D55464744525C524D3759
:102E30002E2A1F2E445C6C60574542432312030820
:102E40000F02F3DDD1D5CECFF00B1E130403FF0527
:102E5000F2E4E2E5FAFD01FDF3F5EFEF0521323191
:102E6000262210140FF7E9E4F2EEE2D8C4B7AFA6B9
:102E7000B1D0E6F3EDECECEFF2E0D6CDD1D2C8C4A0
:102E8000B7AEB6BAC2E0FC1008FDF9F1FCF0E0D133
:102E9000CCD9D0D0CAC7C8C3C6DDFA1622191A16B3
:102EA000232011080311120E0D03FEF8F1FF1B344D
:102EB0003F312C23232308F8E2E6E9E3DED5D4CE24
:102EC000C2C7E7FD0F090608061103FBF3FB171F36
:102ED0002C2526271F2437546464544C3F453A233D
:102EE0001F1D2B29200FFBF0E9E2EF1128342726C4
:102EF000201E2312120A14211A11F9F5F7EFF2100D
:102F00002737302017070DF6E5E3E5EFEAE4D5C7EC
:102F1000C2B9B5D0EE0403F2EDE2EFF1E3E3DCE792
:102F2000E8DCCCBAB7B7B1C5E9F904F4EBE1E6F3F4
:102F3000E0D5CCCECEC6BFB0ABB0ACB8DDF406FBAE
:102F4000F1F1EBFEF5EDEEF0060F120803090B05AB
:102F50001E37464635362E39361F1A121A1C160FE2
:102F6000FDF7EFDFE9FF1125222623293621110580
:102F70000D1A1A1D1613140A0E2F4A6261544A3C88
:102F80003F2C180B0614151308F9F4E7DFF9163275
:102F9000372B25161E1D0900FD111A170CF7EAE143
:102FA000D7E90E2B3D2D2114100EF4E5D7DDE2E11B
:102FB000DBC2B3AAA1A6C6E3F5EEDCD2C5CFCAC276
:102FC000C3CDE7EEF2EBE1E5DFDDF0091A12FDED2E
:102FD000DAE0E4DDDBD6E4E4E1D7C6C3C1C1CCEA84
:102FE00003150BFFF6FE110A02F8FC00FCFFF3EFDD
:102FF000F7F5F80E3047402C231A221B0F01F3FE81
:10300000FC03FBF4F7EFE2E90621291E19121E2644
:103010001709011218191C100AFCF0F40E2B3C3889
:103020002A201F291E0DFC000B0F1606F9F4E6DA04
:10303000E8071F1E09FBEEF5F4EBEBF71629342F1A
:103040002220190C16324B5344341F1E2619110E20
:103050001D241F19FCE9E1D2CDEC112E291206FD29
:103060000A02F7F5F7FFFEFCE7D6DBD3CAE2082435
:10307000240EF9E1E7F0E8E2D8DFDCD5CAB4B5B157
:10308000A6B0D1EBFBEED9CED6EEE5E2E8F2F9F54B
:10309000F6E7E1E8DDDEF716291F03F8F30404F391
:1030A000EFE6EBF0F3E5DDE6E4CDD6F40A15FEF34A
:1030B000ECF70BFE00000B1C1F251B221D0A07202E
:1030C00036494430282130200F10111D1E1305FAF7
:1030D000FBE9D7F51A3A45322C252C2611140E1887
:1030E0001F1C0DFD01F2E2EE18374F3D24150B0FAA
:1030F000F8F9030C1B170C00F6EDD6D4FB1F392F83
:103100000E00F2F8EAE5F8FE0B07FDF0E8EEE3DB6F
:103110000029443D1502F2F0ECDBE3E6EEEEDAC9FD
:10312000C1C9BCAABDEB0507E7C7BEBEC9C3CCDD9C
:10313000ECF8F2EDF2FAFBF0F110293928FDF4F386
:10314000FAF7F203070C09FAF3F3F9F0DCF41A2F9B
:10315000300900010309FD0407121F171118251E6D
:1031600005072637411FFEF4EFFBE9D9DEE7F6F449
:10317000F1F8FDFEE9E1FB142B20FFF7F0F1E7DAAF
:10318000E8F60A100F070A0DFCE7F11833381602AB
:10319000F6F1F1E4E1EAFF0F07F5F0EFE4CAC6EE5D
:1031A0000A1A05DFDAD7E4E8EAFF142C31231B13EF
:1031B0000FFDE6FF223A3204F1E9F2FBF7071B2E7E
:1031C0002F1C090201F9E3E80F253413F6F6F20289
:1031D000F9F3FF0C1609FAFBFE00F8F310303F2C50
:1031E00003F8F2FC03F1F5FD0A0EFFF3F6F9EDD555
:1031F000E90E1E24FFF3ECEEFFF9FD0A17210E0184
:10320000060D0BEDE80928382601FAFE180FFD0B14
:103210000E0D0900F5EAD3C2BAE8FA240BB7ACB137
:10322000E505DDCAF3123628263F3D11E6E70724FF
:103230004228F3EFCED8E207291B1707F707140837
:10324000E3C9EE03273F1B170E0E1AF5FC12333CA1
:103250001AF2E8E9FD000A36464E1CFEF1E9F7FBDA
:10326000FB0AFBFDF4DEE5ECECBEB6E9233C2CF1F9
:10327000D7E8172B28352D322F12FCFFFEE3BAC9F1
:10328000F51529FBF0F5F6FAE900121702DCC8CBB8
:10329000CEC2ADBCE91023FFCFCFE4041D1D230334
:1032A0000E1A0608FD05FFE7052E4C4209FA041A1E
:1032B0002703EAF3FA09ECE0F4EFEAD6DE0B2D4A35
:1032C0003009201D2C1BF9F9EE01FDF4F8E8F20598
:1032D000F0042831341107100B00CBC2DEEC09F1E9
:1032E000E6F2E5E8C5BAF119371EF6EADCDCD6E10C
:1032F00002122D2A0A1613F8FAF50B36535019FE4E
:10330000F5E0F1E5E5FB0D18F3E6DBD1D9D9CAFA12
:103310002B2F0DDFD7D3EBECDEFB20271402F8E8D0
:10332000FD120E19363B3109E6DCE6FE060B1622CD
:1033300014FEE4E5FE1608EFF1061916F4D8E4F6DB
:1033400003FB0D2D311700FD121803E3D0051E19E4
:10335000F7D8E9EAF90C0F292E210E1824231EF4C0
:10336000D8E0080BF9E2D7DCEC0A03FA02002438B3
:10337000210FF1E9CBBCE8FA1B2B02FE0108FDE7A7
:10338000F204232503D8C7B8B39D9FDB0112F1E9EE
:10339000FEFD01EAF62C3C431C01FDF2F4D7C60702
:1033A000333E3F1F161007F8FA2A453026FEE3E3A6
:1033B000C5BAB7CE021A2E12E7E5E3001022312378
:1033C0002D1BFCF4E3F506F70927393303F4FF0757
:1033D0001D06F8020007EAC2C6D0D7CDCDF80917FE
:1033E0000DF0031112F4E90B1515FDDDE7F4F7FEFE
:1033F000EF04202C39141A2C02F1DCDDF4E9E7D0BB
:10340000C9D1D1D9C2B6DD06373F271C0B0A01014D
:1034100016293F33100C1008FDE1EC25415214ED44
:10342000F1DDE6D5E2000D11F2EBF2DDE6D3E124A9
:103430003B4A19FC00E5E6D3E00E2034240F10FDD2
:10344000F5F0EE2343432CFCF6E4D6D2D2F6121963
:103450000DDED4D4DCF5E0FF1E222BFBE7E6D6F42C
:10346000F1093231330FF7FE000EF7F2191E361351
:10347000E3E6D3D8D8E703F800E8CAD8D0E0CAB664
:10348000EC061903D9EEE9FC141E3B414626081D43
:103490001B0FFCE40A232915E8EDEBEFF6DFF50836
:1034A0000109FF01E9DEE9CDF31B232D120F0A0C00
:1034B0001A0F262A2741290FFDF0EFD2EE0C101A21
:1034C000F8E4E8E3DFDCEF06161EF4E0E7D1CAC15A
:1034D000DE000E270602170704F70E33383A130AE8
:1034E00001D4D3C6D1F6121CF3F5ECC2CAD1F5153E
:1034F0000F09EDDFD1BCC1B7D8172F3C2F241AFE1E
:103500000B16244E43381CFEF4DDD9CAE51F262FC6
:1035100018F1F5E3F3F504251D1BFCE0D9C8C9CC6F
:10352000F82D445B31120D050D0D1D35342806E6CE
:10353000D5D0D2CDED1B3121F5E2E9E6F6FC021E35
:103540002112EBD1CCD1E0DF063E3F3009FE04046E
:1035500010FF17322718EEDDD5D0D4CBFC13121A8A
:10356000FA02F8FCF5E30C0C06F2C9BDADB9B9D509
:10357000161D31210B100A1709203A312E06EFE0F3
:10358000DBE0D1FD1A222D100706FFEFEE0E0E0B29
:1035900000EBE3E2ECDCEE1D293E3A241F15FCEEC5
:1035A00006131A1AFFECE5E6D3CAE203203228100C
:1035B0000AF9DDE1F4FF04FEE5D1DEDED8E5FB1D0E
:1035C0003C40221A13F5F4FAFF0F1100E2DBDAC9CE
:1035D000CED1EE1123210C0FF2DCECE4F200FCF76B
:1035E000E0DDDCE6E5DDFE1A3832170CE3E7C2BEAB
:1035F0000D152A03E9DECCE1EA1C4F541FFF1F1C06
:103600000FF5CFE4EDF7FD0810FBF2E8F434434F7B
:1036100055381FF5E7D1EE17201CF5E4DDE3FAD7A6
:10362000F82238491D11F4FDECB4CF00080D121436
:1036300006FFDCD41E535022FE0002F1DCD1FC0F49
:10364000FEE7D9E0DCD1CCF0373C38331C0DE0BFCD
:10365000ADD2F6020F14120CECD7DE071A122313A8
:10366000FDE9C6B8C7CFE1E00C14F3F4E5F2FC1CA9
:103670003D3B4B22FCEBCFD7CF0022323F1706F069
:10368000E6F8EA1B3F3F421917F4D7CCCDEF0B0603
:10369000080E09F3E5ECF01E34322814F9D1C4D633
:1036A000DD09221D2411F7E5E5F2E90C35343E026F
:1036B000E2DAC6CECAE70F0D11F1E5F6E6E1D7FD75
:1036C000272E28F1E8F9D4D5E3FB10181A03060ACF
:1036D000E3EAEFFF312516E9D4D8ABB7CCC6F2FC4C
:1036E000020A04FAE40107FA25332012F806030758
:1036F000FDF11E2727311202FFFBF0D805140B1E27
:10370000F6F80AE3DED9F417152A18050BE5ECEBF9
:10371000DF0B112A180D2304040C09282E271B0780
:1037200006F3EBEAD2F41111240504FBDCDBCEF73F
:10373000190E1F0CF9EFC9C9BBD706173327131C85
:10374000FDF3F4ED0D1B2016FCFAE3D0E5CDED07FB
:10375000FD03E3EAE5D1D8C6E70E0E14FFF6EFEE5F
:10376000F0E9FC2A343F49332B12EEF1F9202E25E3
:1037700022F4F9EACEDECEE60C1130181D1CF2FD63
:10378000FE0D1D100C01F8FEF4F500F71F3E354547
:10379000292014F4FAE6FE07F709F3EDE7D1DCCDB2
:1037A000E91D2938190A05E5D8D0DDF6FE0906001D
:1037B00002F3EF04FB153220280E0B0ADCDFD0E603
:1037C00002F910F7EBEFD8E7E3EA1514230EF8F847
:1037D000D3C4C6DDFF070E0F0602F9F30401052866
:1037E00023280DFAF5D0E4DBE204F90E020005F31C
:1037F00008EEEB111E2C18040CFDEEE0E80E21295A
:103800002D231B13F0F5F2072E242B0D0605D1D323
:10381000D1EA110B1D121006E5F8F1F3150F1B107C
:103820000402E2E0DAEF1F2D3532170BF5EBE9DC8D
:10383000F90A132200F9E3BCCAD90921222703F7A8
:10384000EED6E2DCEB1217280AFDFDD4EF001434AB
:103850002218FFFBF2DDF0DBDB09090D01E8E4CF04
:10386000DDE5F01E141111F0F1E3E0D0D20C1221CD
:1038700021FF10FFF3FF0B231B1C17FDF6E5DBDF19
:10388000D9FE141416FA08FCE1FBF71525131A08E3
:1038900003F1E8F6E4092B1F36231D14F3FCF312A1
:1038A00026142507EEE8CFD6C5E6040C2409110836
:1038B000E6F4FD121F170FFCF3E1D5E3DCF21E2541
:1038C000332A2116F8FE02132C0F00F7DADBC6C9E3
:1038D000C4E1120B27150509DCE3F0061E0713FBF4
:1038E000EEF1D2DFD3F01D2336191305E2E6E8012D
:1038F0001502F8EFE3D5C7C8C2E61B1F261B100B45
:10390000F2EBF1021A0C0600F1EBD1CDD3F72A2A23
:1039100027170508E2D4E0EC0B000206ECE5C6C868
:10392000D5EF2C2A2B100918ECEFEAFF2C242D14CC
:1039300008F2D0E5DCFF282B28161B1C0BF0EEFE4E
:103940001C2B2018F8EADACCDEE821281E270D1FF0
:1039500000E7E8EE23241509EEE1D1DCE3E71D32B0
:10396000322F1519FCDCE1E91018140DEBECE4D84A
:10397000D9CEF5131C251409FBE2E4F10E30181919
:103980000CFDF9D6D7CAEB2219210AF0F5D2D2E301
:10399000EE09030BFEEEEFD4CECCD4001D10FAF2EC
:1039A000FEEADFFCF70A1A030FF0D5C0BAC1C6FE63
:1039B000FAFA0AEEE5F1D3F41D21271D1A0C07FFD0
:1039C0000C312925462F2E1410FAB8C0DBFD0CD679
:1039D000D2FDFD0A0E25212A3A24281AF813E6CC36
:1039E000070C3C5A4B435A4C32171BEAEAFBEB2DAF
:1039F0000CF7F8CDB5A7A6BF9F94A1B3E0D2C0DA6B
:103A0000E507384550506B6C4B270F1B02D2DAB1DB
:103A1000ABD0E73246373415FBD09AA2A7B8D0F521
:103A200039372D3725F2BCBEE1D2EB1E4466616703
:103A30004E0FD9BEA2B6BABCF00C29332808CFD09D
:103A4000D6C4D0D6F406EE00223338263B55433593
:103A500009DCCDBBE7F8E2FE090910EDDCE8FF2642
:103A6000271F161608E4E0DABDD2ED0014FD244746
:103A7000404C3D2B14FCEFD3D4CAAFCFF2DACEF0DA
:103A8000234C311CF1D7D5CCE6DDC1B7C6DFD9BB9D
:103A9000EF0E35565D5F52412A17FBE9B9B3C1DC21
:103AA000E4001F14F7FEDFD50A0E290AE9E7EBF15F
:103AB000F3EC072D536F5B25FC06F4CEB8B1ACCF09
:103AC000E600151105F3EEFAF6ED0AFBEFE6E7DC8A
:103AD000B4D411335567675D341200070CFEF9DC6E
:103AE000BACDD3EEEDD8FB1D16F7E4E6E4D0E8E757
:103AF000E9E9F6141C2121191B1B0C3033362C224A
:103B000016FEEAE2E7E9F5F80EF7F5F7EBF7FEF453
:103B10000A13E8E5E8060B0B103565615A51391EAA
:103B200004E0E1BEBBE0E8EDF7FF00F1D8EBECFC10
:103B3000F901131E2100EBD3C4D6F1113C2C343112
:103B40001017080804E8DBDCD3C8C8DAE303272130
:103B50002D10F2FEEDDFD0C1D3DFF4232328262081
:103B60003629363E2D241A11F7D6DBD2E403EC12A7
:103B700010FA00EDF0FBF50809F3EFE6F8EEFD1D95
:103B8000406F5B41310BF4E5C8D2C1CDFB0107FAB0
:103B9000050500010E160F000D0FFD02E4EEE2F127
:103BA00024343E524B33261C26172103FCF2DEE65A
:103BB000D7D6D9E80D22FDECD5E8DBBCC9D8E6DFC5
:103BC000F611170B121924122444352110190FF87D
:103BD000EEECE8F7EDEAF0EFEBE3ECEEFE170F0C9E
:103BE000FEF2FBE3EE02123B4E4F411A160D03EDBF
:103BF000DAF6E4EBE8DEECD5D0F2F50B1A222F1161
:103C000014FEF4EBE0001923292A423A1724181075
:103C10000D0307EAD6D7D9D9D3EB11101C1B141109
:103C2000EBECDCC9D1D3EAF1F0091224353C512D7B
:103C3000261A00F8DDE4EDE3E7F80709F608FEEFE1
:103C4000F1FB0F020D181809FDF90E13162A36376D
:103C50001B08FAF0DEE4F4EFEBF1F1E6E5E5F7F846
:103C6000F1040F17151104F4E5E6F0F0F412291C25
:103C7000170F0F03FB02100B0202F9E4C9D9F2F28D
:103C8000FA141104E9F90E0801F2F5DFD8D8DCDFE7
:103C9000F10C3C322A352724040803FCF8FCFEFD15
:103CA000F801FFF4EFE6FFEDF70C0B02F6F4FAE78C
:103CB000E70413262E38220CF8F4080BFA090BFA45
:103CC000F0D9EBE3E4F4FD00F9F201FEF1ECE5F5E7
:103CD000E4FB0C1322141E17010AFBF20AFD02FF7B
:103CE000EFF4EEF1E0E6F9F90604FFFDEE000CEA70
:103CF000E4D7D2E0D3D2E3012434484B3125181D58
:103D000007F701EDF1EAD5E7E1D4E1DAF0EBF715D9
:103D1000111504070905160F143328322A0901ED7D
:103D2000FDFEF2FDF4EDF0ECE5DEE8F5FC0C05FF40
:103D3000FEF2FCF4F0FCF9101F102032343A353357
:103D40001904F4E5EBE2E6E7DAE4DDD8FBF4FC0184
:103D5000F6F2E8F9070BFDF2ECEFEBF2EE001012D1
:103D6000241405F1F0F4FDF4F0EEECECE5E7E9F9EC
:103D7000F2F9F9F8FC0403FFF0EF02000D0A0F1648
:103D8000232F2E210FFDFAFF000AF4F3F2EBEBE1F3
:103D9000E8F6020A09FE020918190AFCF4FCF6F812
:103DA000FA010E100A03F8E3E3E3ECE9E4E7F2F5C5
:103DB000F2F6F5FAFC01F8FFFAFF0E0B02F7F80233
:103DC0000D131005090A1A0B03F9ECF7FF08050398
:103DD000FF00FD0BFF03020400F4FFF3FAFDFCEF0C
:103DE000F703121109080F22211B0E01F8FF03022D
:103DF000EFEDEEF2FAF6E8EAEDECF4F902FC0D096B
:103E00000AF3E5E6E5EBF1F2F0FF07170A0B00060F
:103E10000604FFF0F1EBF0F2EFE7FB02130F0C07E3
:103E2000070C0404FC02010D0C0AFF08141E1B0DF4
:103E30000E080F0A0BFCF1EFFC030001FC0104FF6C
:103E4000FAFEFCFEFCF1EBF2F6041415171D22211C
:103E500017FFF6ECEFECF1EEEDFCFC08FDF8F0F4EA
:103E6000F8F4EFEEEAEBF3EAEFEDF5F908141A1BBC
:103E70001E201C05F7F7F0F8F2EEE0DFDBEAF804AD
:103E80000D141D110D011013170C04020708030770
:103E9000FD03F80200000406070D0FFEF8EAEFF339
:103EA00005F6F4FDF9050101030C121300FBF5FC06
:103EB000FCFC04FF090506F4E6E2F3FD04F8EDEF6F
:103EC000E1E5E3EBE9FAF901FDFBFAFE0D0C15FD66
:103ED00002030410170B0F0D0B1305FEFB0C01FE64
:103EE000EFE4FB06070B0204100407FDFBFCFF05D3
:103EF00004FCF9FFFEFAFD0207180D0906E6DEECE8
:103F0000F70702F1F3F5FF060200101E0D08F8E8AE
:103F1000F4FF0101F0EDFDF9FEF7060C05FDF0F1EF
:103F2000F6FDFFFDF8F5EDFB000C0A051416130E67
:103F30000800FE030E0C08F7F8100F10100E1313F4
:103F4000FFF8F4F4FAFF00F4F9EBF3FDF3FA080FCD
:103F5000130F0305FAF8F60C0D0A0E0E130C0906E2
:103F6000080200ECF0E8EF00FDFCF9F3FE0DFF01A4
:103F7000F90000FCE8E4E7E4F8050A0C07FC07FF99
:103F8000080D121303F8F1E6E6ECEBF8FCFDFC0378
:103F9000FCFCFEFE11140003FFF603FD0005FE020B
:103FA0000F16110D10110E04FAFCFDFDF6F2F3E8E8
:103FB000E7F1FA06091322150602FAFDFDFD0006D7
:103FC00004F80000F7FD0007100300F8F4F3E7E53C
:103FD000E6EAF6FD00FFF1F4F903FCFAF6F6FEF866
:103FE000FA01FEFD121318130F0A07FCF4FBFB077E
:103FF0000C0C07150E121005070D131611FDF4ED2C
:10400000F8F9FE040D090F0E0506F6F9060A04FF7D
:10401000F5F7F6F4F7FE0606140E0A07040B09F985
:10402000EDF9FF05FF02FCFAF6F801FB010409F9BE
:10403000F9EAEAE8F1F3F9FEFA0507090E140811A6
:104040000D07F5F0F7020401FBFA01061914120E30
:104050000B0802FB0002FDFAF7F1F0FF08010A105D
:10406000140B01FDFAF8F1F6FE00F803FE0F131130
:10407000140E060108FAF6F2F4F5F8E3EFFC000777
:10408000040A0600FE01F4FBFE07F9F5F7F8F7F65F
:10409000FEF6F7F3FCFF00FB07EDF0FAFB01020B65
:1040A0000B02FA00F103FDFCFAF9FF090A0D0D02FB
:1040B000070E110B19091004EFF6FBF7FC0B1206A3
:1040C000F8FE0609010D15160AFFFAF3F900FCF8CF
:1040D000EFEDFD03050802F9FEF7FD0403FCF6E928
:1040E000E8EDE7F3F6020F010508000E01F5FEFA10
:1040F000080CF7F8F7FA04FB0004121C17140A095D
:104100000A07070713160F100D13130011120406E8
:10411000FF03FAE3DFE7EAECFB08F9F4F402120527
:10412000F900050F0F0F1516181009161117322573
:104130001A00F4F8FEF5F5F7E4F0F9F301FEF609DC
:1041400001F9F4E3D2CFCBD0D3E3EAFB16151A057D
:10415000F3F600F6FEF90A2119152C14E60F2D4C82
:10416000330D0E1103FAF3F30E02060AEFDED9F156
:10417000FF1316E8EAF3FC05E3DAFD0F151809FA58
:1041800000EFF0F401E7EE05012510FEE8F4FA0572
:10419000F6F50C1017090603FB0C13F7E0D7070F11
:1041A00003EEE5DDDCFB03FFEEEAECF1E3D8EFF034
:1041B000FC19251B0002100C0800F90505151A0949
:1041C000F502F9FBFEF9110F110705CED8FEF9F63D
:1041D000F3F3F5F2F1FD060AFD19282D2614F80077
:1041E00002FFFED9EAF9FEF4EDEAE5E9F303FEFE8B
:1041F000F1F5F308172C341307F1E5E7090C09EB87
:10420000EAEEE2E7EDF3DFE9ED0418110211120D19
:1042100004F3E9F10D0C1119180B141528241105DC
:10422000ECE5EEF8F1F3E5E1E7FAFD040C0507062D
:104230000810180D0704030815140AFAF405FCFE0B
:10424000060F07F7FAF1EDDBDDEB00060AF3E2F10A
:10425000F407FCF3F4F0EDFD1212F8F2EFE6E3EBF5
:104260000202FBF0ECEC011226190B09090B0716F0
:104270001F140715100F04FFFBF7F7EAE2DBEBF260
:10428000FCEDE7F1F1FB0A1009FEF7FEEEFB070774
:10429000080E101823232B1711F8F1F0F50601F87A
:1042A000EDEDF6FE01120C0E1507F4F1F6FCEFE64B
:1042B000EAEAF5F70302FAF0E6E5E0F1071209F0A1
:1042C000EAEEF308171105FF01F80708FBF9F308F8
:1042D0000A0E0A0803F9F7FFFB0213100AE7EBEED8
:1042E000EAFB121D1E16190A03171C250C0C0B09DC
:1042F00014100B02E2D7DEE2FE0A09FADCE2EDF26C
:104300000A050C0A0105F7FBFEF9040D141D1B1F1D
:104310000B03F8E5E7D8D9E7F300FBF2F2F70D1E3F
:104320002018060B00031B1106F4EFF403161211FC
:104330000DF2EBE8EB0C0F0DF7DFE6F5081E1C1F86
:104340001C151D020604020AFFFBFF0B13111307C5
:10435000F0FAEEF1FE070CF3D9D8E4F70A0B0C03E0
:104360000D06071504F9F3EDF50D161503EDD7D578
:10437000DFEE09191103FCF5F6FA0A0D06FEFEFA46
:10438000F3FD0C10130C030C16201914FEEEEDEACD
:10439000E9FC0C00F2DDDEFA1A241A05FA00010429
:1043A000081210090807131C20230CEDE9ECEFF8A4
:1043B00002FCF2EEE3EDFF131A1301F4F1EFF9053D
:1043C00003F3E3DCEA010F1512F6E6DCD0D7F206C0
:1043D000FDEDDBE4FA10181A0D05121F1E20200E49
:1043E00005E6E6F5FF121607EBE8EEEFF30A0E0C12
:1043F000FFE9F3FB121D0BFAF3040B0C1E160DF76D
:10440000E6FB0A1C2317FBE7E5E9F1051105FBE5CF
:10441000E3F3FA070F05FBF3F8F801140902F3EAD6
:10442000FC0A131602E8D4D3DEEF070F0DFBE8F405
:104430001120271800F6F3FAFB0606FBF6ECF40F42
:1044400019211E01F6EDE6E3ECF8F7EFE2E4FC16C5
:104450002632210F0C0F1925281F0FFAE7F204103E
:104460001D09F1E7E3E1EBFAFEF2DFD3DCFA071511
:104470000EFAF6F504131D1B06EFDFE3FA0407043A
:10448000F3EFE6E1E2EDFF0601F0EBF9090F1206AA
:10449000FDFD050A111C1C12F9E7F40A131507F0BB
:1044A000DAD6DCED03120B02FBFD10171D0EFCEE3D
:1044B000EDF3FC080A00F2EFF50A121B201500F3D9
:1044C000E8E9F3FE03FCEEE0F90D1B1F1201F8F919
:1044D000F8071308F7E4D7E8F5000905F4E2E5E981
:1044E000ECFB01FAF6EAFA1121261D1000070C1365
:1044F000121408F9E8E3F2F6090905FBEFF1F2F905
:104500000304FBECE3F3FE17221B190F15161F2EF5
:10451000241904E7F501150F01FADFDFDBECF601E2
:104520000902ECEFFD1E402C1DFAFBF0F81C07EE13
:10453000F6D7D4E7F8243127F9D0CDD2F223FEE51F
:10454000CEBED00B383634080D2C2C0609260DD7DC
:10455000D6EAEC002727F7E2E2D1E90B09F8CDCF44
:10456000F0081633342405080CEDF71E2808E7E59B
:104570000104282D13F5F1FE0A0A00EEE2E3C7CF8D
:10458000E7F709180B090B1606162109EDD9FE07E6
:104590000B09FEFCF2F1F1E6F806FBEEE1E5F1FEB7
:1045A0000C1001F3EB0007042616F9EAFC191B2294
:1045B0001509E8E8F3E5F80AFF0CF1DBEFF8110E56
:1045C0001406E80D23112012FAECEFFFF801222661
:1045D0001FFADCFB01120EFFFDE7EC01FD0E0E06DB
:1045E000F3F40001FFF4F2DFE2EB010F0FF1F3E669
:1045F000E7FB030A0A1B07F0F3FA071D191E110750
:10460000FC0A0DFAF8ECE1DADDF6F8041BF2E9EA4F
:10461000081F1E1C0CFC06ECF01A15211A0CECFBF2
:104620001607050DFAFFFFFBFAF709EFF3ECE703B6
:10463000FE0A0CFC09EEF5210F130E0200DEFA094A
:10464000090FECF1F7EAF4F906FFDBDAD9F0F2E250
:10465000E9EDEDE2E8FE122A26190AEE0310050E36
:1046600003FDFEE9FBF71216FC05EAE6F5F6FCF899
:10467000F0FEF1F8092030171A0E0015151A12F97C
:10468000F1F0F7FF03180CFD01EE02FCF1EFE9F386
:10469000E4DAF0031306FCFDE8F8FB0209F8E8EBA6
:1046A000E5E3ED0D0EFBF6EAEDF80BFBF7F5F6EFA3
:1046B000EAF10313FEF0E9EEFD141504000408FF0F
:1046C000FC091E100202EDF9FDF9FEF3E8ECE7EE3D
:1046D000011411F5F5E9F10500FCFBF0F8F7FE1304
:1046E000252B0D0803F7030701F4E9F4EBE5ED09C9
:1046F0001C05FAEDEF060B0B0BF8FAFEF4ECF613C3
:104700000DFFFFF8FDFAF9F9EEF7F8F1F9031C22B5
:10471000110C000C191C10F9F2F0E6E9EB050DFD87
:1047200009FDFC080B0F02F905FA0100112A0A0C19
:104730000604191F2522121100F3F5FB1803F6F2E7
:10474000E4F3EFFAF8F2030700F900190E0609EE98
:1047500002070810F9FBFEF2FEEE0105EEFFE1E1B3
:10476000E4E0EAE0E2FBEDFB02152B121B0B10224A
:10477000242E260E0F020204031F070500E7EEE2B7
:10478000E9EBDEF5ECEBF5FD231F1B210B161919E8
:10479000260B140FFA0700110E080DECE7EDE8F7F1
:1047A000EAEFFFEBF7EE06190309050012222012CB
:1047B0000006F4FAFCFA0FF4F4F1E1E7E7F4F5E5AA
:1047C000ECEFE7F4011604020DF3000311180000EA
:1047D000FBF2F6F90E0BFB05F5EFF1F401EDFA0A29
:1047E000F4F7FA12170B1608050E021203F209F17C
:1047F000FDFA000FF50807FA09080DFAF002FA01B0
:10480000FEFD0DF7FC08F8FCF004F7E2EFE2E3E947
:10481000F0F4F4F7050104F6F607EFF8F9EFF9FE06
:10482000100D0512130B15160F03FF10040BFE03DA
:104830000AF906090B060308F5EBFEFC0A0E141034
:104840000718131010010502E3EEF1E9F3FBFBF486
:10485000FD040105090A12090F180E0D08161600AD
:104860000D1801FD0309FDF1FFF7F6F8FE07F8EF5B
:10487000FCFFFBF4F2F7E7F202F7FC09110DFF076A
:1048800003030C03F8EDEDFFF8F907FDFFF0FA0163
:10489000FD0704FFF5EFF90500080905FC010D050A
:1048A0000405120AFFFE0604020C03FBFA090403C6
:1048B00005FFFFF1F405FBF80D02F9ECF4FFFE082B
:1048C00001FFFF010A0A091416170F1012FAFEFF62
:1048D000F7E6DAE9E4E5EFF5FAF6F0F9F301111796
:1048E00006F8FAFD090A1311FCF31913080B02026A
:1048F00006F6100D293C2824EF163A3736FADA204E
:104900003348372A2AF3E6000A111509FCC4CF0AF6
:10491000F9B8D8150E0703E3021715F4D00F0BFFF3
:104920001C1D01FB0C0E0AF8F5FBF4F9190CE4C987
:10493000C6DCDEFB03F8FAF402173A685843433D3D
:1049400034212406F6F5F6D5ACB5AA9D9CB2B6ADD9
:10495000ABDF09E5EC05051C445555302535220E25
:104960001C1FFDF0F8FB0B150A1009171AF8042498
:104970000BFAFEF7FD06283F464932190E1720159F
:1049800001D8D0FBFB0000DECBBDAFB6B8B2AE9A0B
:104990008992BAD9D6DADECBCAD9F8F7E7EBDBD3FE
:1049A000D2EB13181A15F6E2EA0D0E172729313249
:1049B0005464565E533F38384E4637261B21181331
:1049C0001109FDEBE3D5C4D4D4BCC4D1D5D6CDCF29
:1049D000C5B1A39FA39FA0AEB6C0CACFD4D2DFEB10
:1049E000E3DCE1D4C3BDD4F5FB0F27281F2131360A
:1049F000383E352A25363D344247422D22261B0EAD
:104A000001FDFAEFFE131E22221B09080B04F7F02A
:104A1000EAE4E2E3E4DED3CCBAABA0A1ADA8A69D64
:104A2000AFC3D2EDFC070301FDF5FF04EEE4ECFAA1
:104A3000F0F904040F0D1103FBFAF7F70B242927F3
:104A40002C3A4441483E2B281816172F3721222490
:104A500031332C2F1706F7E7E3E8080B0509161D7D
:104A6000162F342016080A132D341F14030A03FCD2
:104A700000E0DAD2C6C5CBE5EBE6EAEFEFEDF7E30F
:104A8000CDCFC0B7B0B7B7B2ADAAB2A3A3A99C921D
:104A90008A929DB5D9E1EAFA1A231B312C28200508
:104AA0000108263331262E4F4A443E363525323F03
:104AB000434F48494E66685D52342C2013131C291D
:104AC000282D2E2E3C362D1605F3E0E4E1EAF7F80A
:104AD000F3EFFD000C14FAE7D0C3BEC5C9C9D2C5B7
:104AE000CED4DADBC5B4948B9FACC6D6E0D5D5EC7A
:104AF000F2FDF5EEDCBEBCC3E2EFEFF0D7DAE6F094
:104B0000FCFA00ECDEDFF20A132722303E3D473A82
:104B10003727120C031B212729243B414D54483CC5
:104B20002628383E474B5148444742362A1D060541
:104B30000E0E0A061D211A2A24200CF8F1DFE5ECDE
:104B4000EBE5E4EEECF1FF0404F3E0CFC2C9D0D30F
:104B5000DBD7D1D6E0EAE7E2D7C1B7BBC6D7E5EFEE
:104B6000E6E2F7FDF4E5E2E1D1CED1D1D3DAE5DB3F
:104B7000E3F4F7F9F2F4E7E1F4FE05182B31262807
:104B800026262B251BFFF6F3E9F3FE0B0A0B18165E
:104B90001F201A0B04150B07192D2F28342D1E1D4D
:104BA000120AFD08170C1C3443454C5947322A2A77
:104BB0002319291F131A1E262C3E351E16110EF915
:104BC000F3F3E2E5E6E4EAFE09ECD2C2BFB9BAC704
:104BD000BAB6C7CED6E5F9EED5CBC5C5B9CED1B8F4
:104BE000BFCDD1CFDAE5CFC2C0C2BCC4DDCEC8DEF6
:104BF000F1FD020B0BF9F3F8F6E9EDEEDFE7F5FB5B
:104C00000A171F190B0B07FE030B060F1F20242E7C
:104C100032270F0B1E1F202621192F4F546161547C
:104C20003C243A413030250CFE0A1D29363B371D05
:104C3000233936302817070911151A0A00F3DCE466
:104C4000E4E4E3D5CAC7D7E8F6F9EBE2CBD0DBD88A
:104C5000E4DEC7B9C5D7E3ECE3DBC7BFD5D5D5DE06
:104C6000DEDADFF001080B1202ECF904F9E8D5CA2C
:104C7000CAD9E2EFF5ECEAD9D2DDDEDBCEC2C6D28C
:104C8000DBE9F2EEE8DDD5E5EEF0F4EDE6F506134E
:104C90001F1B1B130A19221D181107FE0A22393780
:104CA0002C2C2123323A34261A0A0A13252E1C16DC
:104CB0000B030B121C1C18141B2E384F4F4B463184
:104CC0003433332F1A0C02111E262C201F08011317
:104CD0001B251201F7F20212241C1611FDFE030817
:104CE000F5D6D1CAD2E0F8FFECEFE3E3E6E0E8D393
:104CF000C9C6BDCAD3E0D0B9B5B4C8C4CACEBCBA5F
:104D0000B2BED4E8F5E9DED3D8DEDDE8DAD6D5CC1C
:104D1000DDE9F7F2F0F8F1F9FF0A03EAECE7EF0654
:104D2000131C0E0E0D0D13182006FE0706171F2A62
:104D30002005010008070A03E5E2DEE7F6FE130995
:104D40000311212B2B2D1D1618192C333A2D1A2047
:104D5000222F2C2414FDFDFA0D2A363D2924313949
:104D600045474A3222232128282B1C0B10110E0CF8
:104D700013120202030D141620120A0E12130B074F
:104D8000F3E0DFE1EAF2FAF6E6E1DEE3E5E4D6BEDF
:104D9000B7B2BCCAD3E3DBD6DADCE4E6F0ECE5EA92
:104DA000E9EDEBF1EDE1EEF5EFE8E4DFCFCDD5DDB8
:104DB000E8ECF3EBEAF2F8FFFCFFF3DFD8DDE7E223
:104DC000E3E2DDE1E2E6E9EFF7F2F7FE0E1B222A6D
:104DD000252A2419140C0F07030E141D222B2C2C2A
:104DE00035383A342E260D05060B151920130A0501
:104DF0000B131B2E2D2A2727353336362A26171458
:104E000007FCF3E1E5E9FC0C14262837392F3C3A7E
:104E10003B2E2726171909F6E6DBDCD3E4F9081246
:104E20000612141A272938261B0AE9DFD4CBBCBB8B
:104E3000D0D6E7F1FC090106FBF7F6E4DFCFCECAD6
:104E4000BBB5A6A59697A6A6CBE0EAF0F1FBECEBE6
:104E5000EFEFF1E8E0C3B3ADA0A6AECAE6F80918DB
:104E60002724282419130C06F1E4E1D7D0C9D3E193
:104E7000FA1F2D3D433E3629353B352918FFE2D632
:104E8000C6BEC8E3011F445C5B4434352F35341F74
:104E900008E6D5C7C1CEDFEFFC1D3A444E4345407E
:104EA000363A3335311AF9E1DBD6DFE9F40D142A4D
:104EB000393C4E41352F28261805E7D3C4C1DDF310
:104EC00012312C28171826282311FDE9DBCBC4C981
:104ED000BABDD2DC000F141005100F172B2E2305BE
:104EE000E4C4C1CBC0C5C5D6E7F1091B2B291A0BF9
:104EF000FDF6E5CDB7B2BBACC3E8041E10170D0438
:104F00000DFCEEDFD2BDA09BA2AFB1C2E2F315252E
:104F10002D2B2B3B3C3F48401CFBE0C3BBBCC8D106
:104F2000DDF906152A434442392714F7E4C7B4B221
:104F3000C6E700243F3C3B313537382F16FDDCD91E
:104F4000C8D2EDE8F1F6123036463D3A363B413CE8
:104F5000412403D7BDC1C2D4E1EEF7000907202FD9
:104F6000291E07FBECE3DCE0DDEC132E5B697062CD
:104F7000423C312F1A07E3B8A7A0B2C7EF0C19259E
:104F80002C372E333A302E281E0EF8E2D0BBBED17D
:104F9000D9E5EFF1F5FA0519231E0FE8CBBEBAB536
:104FA000B1CADCFA0E1F37323123100901DBB0948D
:104FB0008D8C8DA8CFF20C1D1C1D211D1A100CFD0F
:104FC000EEEDE5F0E8F0F9FA121C241709040607E3
:104FD0000E10FFEAD6C6BFC8DDFC121A2A373E4CB7
:104FE0005C4E2F14E1C3A99B958FA7BBDAF81B3643
:104FF0003A3D3433352403EBD7CAD2E90D2C443C77
:105000002F221D1F232511FEDFCEC4C9D9F50107AC
:10501000222C302E31282B302D210AF9DBC3C4DCA1
:10502000EA011219211B263C3B382C01E2CCC1C4F9
:10503000D8EAF41A2C40474A533E2B1906DDC1AF7B
:105040009E9AA6CFF00621251715212A1E0FF9E4F6
:10505000D3D1E8EFFF24322B23221F1E1306F7DEE5
:10506000CDCCC1C1D0D8DDF4090F1B1410172A24F0
:105070000BEACCBFB1BAD1E80D343624142539354A
:105080003A22FCDDD0C8BCD8F807292F3C35374080
:1050900023170AFFDCCED6F1CCBDFB33555F411F91
:1050A000291E0EFDD8C8C1B1DAF91940492D2931A0
:1050B000483843604424C4A29093B4ABB9FD2B3963
:1050C000636E465D684E2C18FAC39585C5B7E0EC53
:1050D000F3EAD5E3D3DDAED4CBC8CCACC4FF2B3DD3
:1050E000525255637866430FE8AB90968190BAE8C8
:1050F0003464736B6634ECC58A9292C0DEBACC100D
:10510000526A6E3A060A10110F16412B10FACEE5BC
:10511000D7BAE8F8082C3F4A6974493F10E3BC9BB2
:10512000AFD10D466C6E5741120001E3D8C1B6B243
:1051300099A9D7F8FE14342A3D352B240DEFB0A7DA
:10514000AAACB9D2EFFCF7FFFBFCFAFB18273C3CFA
:1051500011CECFC8D309224341251A19283A2C1B56
:1051600000F2DEE6EBF309FFFA0316151F2A2329E6
:1051700040371DF2D0B8C4DBEE03EFEEE6DADCDD3B
:10518000E2EBD7B7A7A6ADD60725372B201B3248B1
:1051900035372A0AFBE6E8DADCE2FF10000F0209E5
:1051A000FD0806F9F5E1B29AA9BCEE2E6254593D0C
:1051B000140A222D0CE5DDCDBEBDCAEBEE0D08278D
:1051C0003532373734352705F6E0D6C6E700375392
:1051D0004C340E1919191C0BFFD6B3C2C1EAFE1BC1
:1051E00025273B2B403F3724F4E5D2BBBEB5C6D9BB
:1051F00000160902F2FDF1F9080B13F7E7BFA1BF92
:10520000CB01374E451208EBF1F3D9CFB3BAB9B1A0
:10521000DAF80F251105ECEC020F1A181406FD0B35
:105220000B08070D1B0804F5F2F71023262F19EDC4
:10523000C9C1C1CFF32329383C353735494C341522
:1052400001E5CDCADBE5FD16262E26270F12190E25
:1052500002E4D7C3BFE41138535B4A1B0AF8010FBD
:1052600001F2BCA6A5A2BAD6F504FF05FAFB040616
:1052700002FBFBE8D0D4E4F6030B2528211A0AFE32
:10528000FC08191B0AF6D0A798A5C1E2FBFCF7F2AF
:10529000F7082430270CE3C5A7A3C5F0192A32422A
:1052A0003D3B372E1D1810EEDACBCDDFFE26494FE1
:1052B00050452A150E0BFE02F0DDC7C4DCEB0728B3
:1052C0002D191308F8F002161C1A1303F0EFFA0D4B
:1052D0000F261AFFF5E0E4E5081D07ECDABBA1AEE6
:1052E000D7F2FD171312010F181E332C210AF5D324
:1052F000BEBCE1EE001F2F3427250F03F3EEC6AB33
:10530000A5ACB9DF1E3549403B161928281F0CF5FE
:10531000CCAFAECDD4FC0C2418111EF9F4E6F0EE9F
:10532000EEF9E5E1EBF505081D322A2902F7EBF766
:10533000080104E9DEC5CFDDEAFE19323448463FF4
:105340003C301D04DED2B6A6B9B8DEEF1B352A26E6
:1053500006FDF9030901E5D9CCCDE7031E2E394A34
:1053600045373004FAECE8EDE2E8DAD5D2D7E7F3D6
:1053700008140F0AFD09182735220EF4E8E2E6FDAD
:105380000409080C0E06120D16200DFBDFD9CFD034
:10539000E4F20E30454F3D2A1B0BFDEEE3BDA69611
:1053A0009DB2CDF4FE180FF0D0B2CBD1E300FC08D3
:1053B000001632354C39361D04FBD8D6D6E3E9EF5A
:1053C000F3DDDFE2F50E17342A2C12F2FE052B2E48
:1053D0002F29FDF5E5F50910291D272C1E0FFC0AC4
:1053E0000AFEF4D4C6B9D0E4EF1837605655401A17
:1053F00009F4FAEBCFC2A3AED2EF141D3E31261B47
:1054000007F6E5E7E6D3D3E2EF161F32242C1D01A1
:10541000F5D4DBC0CDDEE8F3E8E9DEE0EADCEFFE60
:10542000162F1520070C1D22370CEAC1A3B8BCD2D9
:10543000CDC9E5EE1C2528261707F6F9FBF8FBF485
:10544000F6FD072F3E5042230AF4F800101600EF35
:10545000E3F908091503EEECF8FE03060B041C3112
:105460003B31240EE4E4E3E2D4E4EDF1F1EF071480
:10547000263A2404E9E0E6E9FDEBE7EC0F31393F99
:1054800019EFDAE3E7E0D4CBBDCCE2F9FAFD0B0289
:105490000E050B0714242124192427262C10E9D2E9
:1054A000C6DBE9FDF4EAF1FD22222A05E8DAC6CEE0
:1054B000C4CACAE001143335261B1414F2DCD5D754
:1054C000E1E3F5ECF0FC0E272A2D1900FA05130C88
:1054D000080B0B1E2F2A140309FAF3FEFAFBF7053B
:1054E000110A0F08F7FCF9F6EAE2F0F0F915212AA3
:1054F00034312E0B0A01E9E2DAE3DCEAF0E6EBFFF5
:105500000201090BFEEEEFF5FDF914162B383324DA
:1055100000FAE3D2CEDAE5E1E5F8F71C2D36260AEB
:105520000CE3DDCEDADCE000102D444142241C0EF9
:10553000ECF6E1F2E3E3EFDBEBEBF0F7F7F3DED6CB
:10554000E5ECF6F501FD0E1D172002F8E5DDF1F79B
:10555000110707110C1A161810FFFED7C9D7EDF660
:10556000F225354637262C1113FFE4DBD5D7CFCCF7
:10557000DDE4F003283727220A04040A0AFB0B1291
:105580001E15090EFBF7F3F900F7F3EDF404050817
:10559000F905FAE1DED2E4DBE4FF18434B3D352B9D
:1055A0001BF9F4EDEEEADCE4DDEEEFFB15263B2122
:1055B0000509FBF6EBEAFA0210100A07FDF8F8F409
:1055C000FDF0DBCBCFD4D5D7DBEEEBE5D4C0C2C644
:1055D000D9FB10343A3444483B2D1F0B04E1D2C8A8
:1055E000C3C8D1F0051C2E221B25241C0904FF0072
:1055F000F8FA0308130C141D2925140606FFF8FAFF
:10560000F8FCF6ECE2E0D9D1DDF3071A1D223B45A8
:10561000393723110BF9EEE2DBC0C4E00120212B66
:10562000271A0F00FFF2E3E1C7CACDCFF2062334F9
:1056300037382018FCF4F6E6DDD3D9DAE0D6D2EC20
:10564000F00518101A181C1416220CFFD8C7BAA897
:10565000ADB6CFDEF5FFFF1B1D1D1C131300FBEACB
:10566000E4E2E11014254B3E3D4138251305EAE103
:10567000D2CACFC6DC000D1C322B161F12FEFEF262
:10568000FE02F805FFF0112721332F13120A080F2D
:10569000FEF9F8E6D7E2D4DB04F0021A091718166F
:1056A000211B040800DBDBC4B3E2EB001C151D2545
:1056B00019040DF7E5E4C2CED2D8081C373F3C2DC3
:1056C000282805F7DECFD0B9CACFCC051A2A374033
:1056D0002F1806EDEED4D5DEC5C9D0D6FA06212A9C
:1056E0001B01FDFBF208F7FAFCE0E5D3DF0305122E
:1056F0001E2A1C252B252B161208E9EBD2D8EBF11C
:10570000171E302828232222080CF4D0C7B8CEE672
:10571000F92C3C3C3B392F3028FDEECCB0BCB2E03C
:10572000FA0431342C1C1706FAEFE6F3D0CADEE790
:105730000D1C2C382312FEEDE8E9DFDAE6D8DFF2A3
:10574000021B1C2B311D1102F6F1F6FD01FDEBE8E9
:10575000E9FA080F1F201C00EBFC0800F3ECC5A5BC
:10576000AAC8D9DBFF10FF03080A171C1409F2D7D7
:10577000CDD6FAFD001E2D33342C231C09FEF9D69C
:10578000BBB9D1E9F82A595943391D0708FDEEDDA7
:10579000BEAAB4E8021038402F231E1917130DFBC0
:1057A000D5C7DAF507031B230E0C0900FF02F4EB43
:1057B000F0E3DBE604FFF4181F120D02F601050CFE
:1057C00014FAE1E5FDEAE9151606FBF6FC172223BB
:1057D0001CEFD8BDDBFDE90F241B090D1D1F2A1688
:1057E00012ECBEC5CEECD3DB05EBF602FAF5EEEF1C
:1057F000DDD0BCB6D3EBF3022D392F34180D0DF1EB
:10580000FBE1C6B2AFE3D1F2221E02E7EACCDFF839
:105810000401D2D5E4FF040A361207FCDDE9E800F2
:10582000F7E5E8D1F81C1419202BF7E9CED2EED613
:10583000EBD9E0D9226A232E4B09E5E7E6E3EDF741
:10584000DBCFBDD4032D373123E7EB040C2A302DF9
:105850002B03E8C7012C0F424725050E1DF4F0016C
:1058600000D8B5CF0E22F71C23F70F182210071A05
:10587000EBB9C2E004CDC1E7D3E1D9F0EDF5FBEF20
:10588000F1D4D6F42B0C1562492B393A21EBEE05F5
:10589000F1D3C2FCFFD909251B1E433C16FAF7FBC6
:1058A000BFC0D90900EC3B3B1A0AFAF8F0F500E456
:1058B000D1BFD9120618453203F30006FEF50A00DF
:1058C000D8E21B2103353C1A050A0BF3EFE7DDBDD7
:1058D000A8DB0A010B2915FDF3EE03050C26251E96
:1058E0000B2252172737272C141B0AFF05160BF122
:1058F000FE290FED132C1B121714080014F8DEE319
:10590000E8F8E311361423060E13FA0B04FDF0E950
:10591000010608271E1810140A1109F8F5CCBFD18A
:105920000A0413412B1E150F140C1600D1C7B9F72A
:1059300000F746453E3324210511FACEC7B4BDE237
:10594000E5061E161D232A21140601E1D8E10921CE
:105950001841483F372F2A1400FCDFCEC3DD03E98E
:105960001530241A101A00FA0E02F0E8F02622254B
:105970004B371B0A1000F9FAF8DDC8CBE506022DFB
:1059800043311E0705EDD6F0E3D5DAF121112C489D
:105990002E26110AFDE2EBEDDCCFE21E1F173625A5
:1059A000070F1719110013F1E3EBED221230420E2D
:1059B00008FB01F2D9FBDDD1E5E20EFD102F151C2D
:1059C0000F161D101108F0DEE5050F183731100E07
:1059D00006F5FCF703E7D8CCCCFEEF1138253037BD
:1059E0003C301117F6D0C7BCEBE8F913FC020829CC
:1059F0003423271EECC8BEDEE3E409F7EAF90D18EC
:105A0000110E11EDCCC2E0F1CFF403DBDEFBFBE9BC
:105A1000E8F9D3B9CCCEF6F00D3213161813FBE229
:105A2000F3E2BDBEBCE3D6ED1F14201C2E16F5F02C
:105A3000E5C9BFC5F5010443443B313F270A03FADA
:105A4000C796929AD4D1163518140718070A16ED7E
:105A5000BFB3B3EDF8173D2E2412281E120AECC175
:105A6000A1B5F30708292D09051E1B0700F2B8B2DE
:105A7000C1F219071F220A06223D1803FEBAB8C058
:105A8000E100F91702F1F3031E0CFDFDD2D1D6F9A6
:105A9000060724080A0104F7E4DAD6BFC0D8ECF9F7
:105AA00006230C1B1E1E03FBFAECDBCAEBEBF6070E
:105AB000201F192519F3F7F2E9D8C6E0DAF1F52D20
:105AC00044303F3025171A2100E4E1E0E7D00F27EA
:105AD000030AFCFCEFFC17FEE2D4DEE0CA071E015D
